{
  "address": "0xe7f1725E7734CE288F8367e1Bb143E90bb3F0512",
  "abi": [
    {
      "inputs": [
        {
          "internalType": "address",
          "name": "token",
          "type": "address"
        }
      ],
      "stateMutability": "nonpayable",
      "type": "constructor"
    },
    {
      "anonymous": false,
      "inputs": [
        {
          "indexed": true,
          "internalType": "address",
          "name": "owner",
          "type": "address"
        },
        {
          "indexed": true,
          "internalType": "address",
          "name": "approved",
          "type": "address"
        },
        {
          "indexed": true,
          "internalType": "uint256",
          "name": "tokenId",
          "type": "uint256"
        }
      ],
      "name": "Approval",
      "type": "event"
    },
    {
      "anonymous": false,
      "inputs": [
        {
          "indexed": true,
          "internalType": "address",
          "name": "owner",
          "type": "address"
        },
        {
          "indexed": true,
          "internalType": "address",
          "name": "operator",
          "type": "address"
        },
        {
          "indexed": false,
          "internalType": "bool",
          "name": "approved",
          "type": "bool"
        }
      ],
      "name": "ApprovalForAll",
      "type": "event"
    },
    {
      "anonymous": false,
      "inputs": [
        {
          "indexed": false,
          "internalType": "uint256",
          "name": "tokenId",
          "type": "uint256"
        },
        {
          "indexed": false,
          "internalType": "uint256",
          "name": "price",
          "type": "uint256"
        },
        {
          "indexed": false,
          "internalType": "address",
          "name": "creator",
          "type": "address"
        },
        {
          "indexed": false,
          "internalType": "bool",
          "name": "isListed",
          "type": "bool"
        }
      ],
      "name": "NftItemCreated",
      "type": "event"
    },
    {
      "anonymous": false,
      "inputs": [
        {
          "indexed": true,
          "internalType": "address",
          "name": "previousOwner",
          "type": "address"
        },
        {
          "indexed": true,
          "internalType": "address",
          "name": "newOwner",
          "type": "address"
        }
      ],
      "name": "OwnershipTransferred",
      "type": "event"
    },
    {
      "anonymous": false,
      "inputs": [
        {
          "indexed": true,
          "internalType": "address",
          "name": "from",
          "type": "address"
        },
        {
          "indexed": true,
          "internalType": "address",
          "name": "to",
          "type": "address"
        },
        {
          "indexed": true,
          "internalType": "uint256",
          "name": "tokenId",
          "type": "uint256"
        }
      ],
      "name": "Transfer",
      "type": "event"
    },
    {
      "inputs": [],
      "name": "TFT",
      "outputs": [
        {
          "internalType": "contract IERC20",
          "name": "",
          "type": "address"
        }
      ],
      "stateMutability": "view",
      "type": "function"
    },
    {
      "inputs": [
        {
          "internalType": "address",
          "name": "to",
          "type": "address"
        },
        {
          "internalType": "uint256",
          "name": "tokenId",
          "type": "uint256"
        }
      ],
      "name": "approve",
      "outputs": [],
      "stateMutability": "nonpayable",
      "type": "function"
    },
    {
      "inputs": [
        {
          "internalType": "address",
          "name": "owner",
          "type": "address"
        }
      ],
      "name": "balanceOf",
      "outputs": [
        {
          "internalType": "uint256",
          "name": "",
          "type": "uint256"
        }
      ],
      "stateMutability": "view",
      "type": "function"
    },
    {
      "inputs": [
        {
          "internalType": "uint256",
          "name": "tokenId",
          "type": "uint256"
        }
      ],
      "name": "buyNft",
      "outputs": [],
      "stateMutability": "payable",
      "type": "function"
    },
    {
      "inputs": [
        {
          "internalType": "uint256",
          "name": "tokenId",
          "type": "uint256"
        }
      ],
      "name": "buyNftwithTFT",
      "outputs": [],
      "stateMutability": "nonpayable",
      "type": "function"
    },
    {
      "inputs": [],
      "name": "getAllNfts",
      "outputs": [
        {
          "components": [
            {
              "internalType": "uint256",
              "name": "tokenId",
              "type": "uint256"
            },
            {
              "internalType": "uint256",
              "name": "price",
              "type": "uint256"
            },
            {
              "internalType": "address",
              "name": "creator",
              "type": "address"
            },
            {
              "internalType": "bool",
              "name": "isListed",
              "type": "bool"
            },
            {
              "internalType": "string",
              "name": "_tokenURI",
              "type": "string"
            }
          ],
          "internalType": "struct NftMarket.NftItem[]",
          "name": "",
          "type": "tuple[]"
        }
      ],
      "stateMutability": "view",
      "type": "function"
    },
    {
      "inputs": [],
      "name": "getAllNftsOnSale",
      "outputs": [
        {
          "components": [
            {
              "internalType": "uint256",
              "name": "tokenId",
              "type": "uint256"
            },
            {
              "internalType": "uint256",
              "name": "price",
              "type": "uint256"
            },
            {
              "internalType": "address",
              "name": "creator",
              "type": "address"
            },
            {
              "internalType": "bool",
              "name": "isListed",
              "type": "bool"
            },
            {
              "internalType": "string",
              "name": "_tokenURI",
              "type": "string"
            }
          ],
          "internalType": "struct NftMarket.NftItem[]",
          "name": "",
          "type": "tuple[]"
        }
      ],
      "stateMutability": "view",
      "type": "function"
    },
    {
      "inputs": [
        {
          "internalType": "uint256",
          "name": "tokenId",
          "type": "uint256"
        }
      ],
      "name": "getApproved",
      "outputs": [
        {
          "internalType": "address",
          "name": "",
          "type": "address"
        }
      ],
      "stateMutability": "view",
      "type": "function"
    },
    {
      "inputs": [
        {
          "internalType": "uint256",
          "name": "tokenId",
          "type": "uint256"
        }
      ],
      "name": "getNftItem",
      "outputs": [
        {
          "components": [
            {
              "internalType": "uint256",
              "name": "tokenId",
              "type": "uint256"
            },
            {
              "internalType": "uint256",
              "name": "price",
              "type": "uint256"
            },
            {
              "internalType": "address",
              "name": "creator",
              "type": "address"
            },
            {
              "internalType": "bool",
              "name": "isListed",
              "type": "bool"
            },
            {
              "internalType": "string",
              "name": "_tokenURI",
              "type": "string"
            }
          ],
          "internalType": "struct NftMarket.NftItem",
          "name": "",
          "type": "tuple"
        }
      ],
      "stateMutability": "view",
      "type": "function"
    },
    {
      "inputs": [],
      "name": "getOwnedNfts",
      "outputs": [
        {
          "components": [
            {
              "internalType": "uint256",
              "name": "tokenId",
              "type": "uint256"
            },
            {
              "internalType": "uint256",
              "name": "price",
              "type": "uint256"
            },
            {
              "internalType": "address",
              "name": "creator",
              "type": "address"
            },
            {
              "internalType": "bool",
              "name": "isListed",
              "type": "bool"
            },
            {
              "internalType": "string",
              "name": "_tokenURI",
              "type": "string"
            }
          ],
          "internalType": "struct NftMarket.NftItem[]",
          "name": "",
          "type": "tuple[]"
        }
      ],
      "stateMutability": "view",
      "type": "function"
    },
    {
      "inputs": [
        {
          "internalType": "address",
          "name": "owner",
          "type": "address"
        },
        {
          "internalType": "address",
          "name": "operator",
          "type": "address"
        }
      ],
      "name": "isApprovedForAll",
      "outputs": [
        {
          "internalType": "bool",
          "name": "",
          "type": "bool"
        }
      ],
      "stateMutability": "view",
      "type": "function"
    },
    {
      "inputs": [],
      "name": "listedItemsCount",
      "outputs": [
        {
          "internalType": "uint256",
          "name": "",
          "type": "uint256"
        }
      ],
      "stateMutability": "view",
      "type": "function"
    },
    {
      "inputs": [],
      "name": "listingPrice",
      "outputs": [
        {
          "internalType": "uint256",
          "name": "",
          "type": "uint256"
        }
      ],
      "stateMutability": "view",
      "type": "function"
    },
    {
      "inputs": [
        {
          "internalType": "string",
          "name": "_tokenURI",
          "type": "string"
        },
        {
          "internalType": "uint256",
          "name": "price",
          "type": "uint256"
        }
      ],
      "name": "mintToken",
      "outputs": [
        {
          "internalType": "uint256",
          "name": "",
          "type": "uint256"
        }
      ],
      "stateMutability": "payable",
      "type": "function"
    },
    {
      "inputs": [],
      "name": "name",
      "outputs": [
        {
          "internalType": "string",
          "name": "",
          "type": "string"
        }
      ],
      "stateMutability": "view",
      "type": "function"
    },
    {
      "inputs": [],
      "name": "owner",
      "outputs": [
        {
          "internalType": "address",
          "name": "",
          "type": "address"
        }
      ],
      "stateMutability": "view",
      "type": "function"
    },
    {
      "inputs": [
        {
          "internalType": "uint256",
          "name": "tokenId",
          "type": "uint256"
        }
      ],
      "name": "ownerOf",
      "outputs": [
        {
          "internalType": "address",
          "name": "",
          "type": "address"
        }
      ],
      "stateMutability": "view",
      "type": "function"
    },
    {
      "inputs": [
        {
          "internalType": "uint256",
          "name": "tokenId",
          "type": "uint256"
        },
        {
          "internalType": "uint256",
          "name": "newPrice",
          "type": "uint256"
        }
      ],
      "name": "placeNftOnSale",
      "outputs": [],
      "stateMutability": "payable",
      "type": "function"
    },
    {
      "inputs": [],
      "name": "renounceOwnership",
      "outputs": [],
      "stateMutability": "nonpayable",
      "type": "function"
    },
    {
      "inputs": [
        {
          "internalType": "address",
          "name": "from",
          "type": "address"
        },
        {
          "internalType": "address",
          "name": "to",
          "type": "address"
        },
        {
          "internalType": "uint256",
          "name": "tokenId",
          "type": "uint256"
        }
      ],
      "name": "safeTransferFrom",
      "outputs": [],
      "stateMutability": "nonpayable",
      "type": "function"
    },
    {
      "inputs": [
        {
          "internalType": "address",
          "name": "from",
          "type": "address"
        },
        {
          "internalType": "address",
          "name": "to",
          "type": "address"
        },
        {
          "internalType": "uint256",
          "name": "tokenId",
          "type": "uint256"
        },
        {
          "internalType": "bytes",
          "name": "data",
          "type": "bytes"
        }
      ],
      "name": "safeTransferFrom",
      "outputs": [],
      "stateMutability": "nonpayable",
      "type": "function"
    },
    {
      "inputs": [
        {
          "internalType": "address",
          "name": "operator",
          "type": "address"
        },
        {
          "internalType": "bool",
          "name": "approved",
          "type": "bool"
        }
      ],
      "name": "setApprovalForAll",
      "outputs": [],
      "stateMutability": "nonpayable",
      "type": "function"
    },
    {
      "inputs": [
        {
          "internalType": "uint256",
          "name": "newPrice",
          "type": "uint256"
        }
      ],
      "name": "setListingPrice",
      "outputs": [],
      "stateMutability": "nonpayable",
      "type": "function"
    },
    {
      "inputs": [
        {
          "internalType": "bytes4",
          "name": "interfaceId",
          "type": "bytes4"
        }
      ],
      "name": "supportsInterface",
      "outputs": [
        {
          "internalType": "bool",
          "name": "",
          "type": "bool"
        }
      ],
      "stateMutability": "view",
      "type": "function"
    },
    {
      "inputs": [],
      "name": "symbol",
      "outputs": [
        {
          "internalType": "string",
          "name": "",
          "type": "string"
        }
      ],
      "stateMutability": "view",
      "type": "function"
    },
    {
      "inputs": [
        {
          "internalType": "uint256",
          "name": "index",
          "type": "uint256"
        }
      ],
      "name": "tokenByIndex",
      "outputs": [
        {
          "internalType": "uint256",
          "name": "",
          "type": "uint256"
        }
      ],
      "stateMutability": "view",
      "type": "function"
    },
    {
      "inputs": [
        {
          "internalType": "address",
          "name": "owner",
          "type": "address"
        },
        {
          "internalType": "uint256",
          "name": "index",
          "type": "uint256"
        }
      ],
      "name": "tokenOfOwnerByIndex",
      "outputs": [
        {
          "internalType": "uint256",
          "name": "",
          "type": "uint256"
        }
      ],
      "stateMutability": "view",
      "type": "function"
    },
    {
      "inputs": [
        {
          "internalType": "uint256",
          "name": "tokenId",
          "type": "uint256"
        }
      ],
      "name": "tokenURI",
      "outputs": [
        {
          "internalType": "string",
          "name": "",
          "type": "string"
        }
      ],
      "stateMutability": "view",
      "type": "function"
    },
    {
      "inputs": [
        {
          "internalType": "string",
          "name": "_tokenURI",
          "type": "string"
        }
      ],
      "name": "tokenURIExists",
      "outputs": [
        {
          "internalType": "bool",
          "name": "",
          "type": "bool"
        }
      ],
      "stateMutability": "view",
      "type": "function"
    },
    {
      "inputs": [],
      "name": "totalSupply",
      "outputs": [
        {
          "internalType": "uint256",
          "name": "",
          "type": "uint256"
        }
      ],
      "stateMutability": "view",
      "type": "function"
    },
    {
      "inputs": [
        {
          "internalType": "address",
          "name": "from",
          "type": "address"
        },
        {
          "internalType": "address",
          "name": "to",
          "type": "address"
        },
        {
          "internalType": "uint256",
          "name": "tokenId",
          "type": "uint256"
        }
      ],
      "name": "transferFrom",
      "outputs": [],
      "stateMutability": "nonpayable",
      "type": "function"
    },
    {
      "inputs": [
        {
          "internalType": "address",
          "name": "newOwner",
          "type": "address"
        }
      ],
      "name": "transferOwnership",
      "outputs": [],
      "stateMutability": "nonpayable",
      "type": "function"
    }
  ],
  "transactionHash": "0x4f2bacd8b9053f6e1401329ea8ef7256a6da4a52ebd320965dd360e32a6342b6",
  "args": [
    "0x5FbDB2315678afecb367f032d93F642f64180aa3"
  ],
  "numDeployments": 1,
  "solcInputHash": "ae72b2128b27c2ba691cb2d020527ec6",
  "bytecode": "0x60806040526658d15e17628000600c553480156200001c57600080fd5b506040516200585238038062005852833981810160405281019062000042919062000332565b6040518060400160405280600c81526020017f4372656174757265734e465400000000000000000000000000000000000000008152506040518060400160405280600481526020017f434e4654000000000000000000000000000000000000000000000000000000008152508160009080519060200190620000c692919062000218565b508060019080519060200190620000df92919062000218565b50505062000102620000f66200014a60201b60201c565b6200015260201b60201c565b80600d60006101000a81548173ffffffffffffffffffffffffffffffffffffffff021916908373ffffffffffffffffffffffffffffffffffffffff16021790555050620003c9565b600033905090565b6000600b60009054906101000a900473ffffffffffffffffffffffffffffffffffffffff16905081600b60006101000a81548173ffffffffffffffffffffffffffffffffffffffff021916908373ffffffffffffffffffffffffffffffffffffffff1602179055508173ffffffffffffffffffffffffffffffffffffffff168173ffffffffffffffffffffffffffffffffffffffff167f8be0079c531659141344cd1fd0a4f28419497f9722a3daafe3b4186f6b6457e060405160405180910390a35050565b828054620002269062000393565b90600052602060002090601f0160209004810192826200024a576000855562000296565b82601f106200026557805160ff191683800117855562000296565b8280016001018555821562000296579182015b828111156200029557825182559160200191906001019062000278565b5b509050620002a59190620002a9565b5090565b5b80821115620002c4576000816000905550600101620002aa565b5090565b600080fd5b600073ffffffffffffffffffffffffffffffffffffffff82169050919050565b6000620002fa82620002cd565b9050919050565b6200030c81620002ed565b81146200031857600080fd5b50565b6000815190506200032c8162000301565b92915050565b6000602082840312156200034b576200034a620002c8565b5b60006200035b848285016200031b565b91505092915050565b7f4e487b7100000000000000000000000000000000000000000000000000000000600052602260045260246000fd5b60006002820490506001821680620003ac57607f821691505b60208210811415620003c357620003c262000364565b5b50919050565b61547980620003d96000396000f3fe6080604052600436106101e35760003560e01c806370cbcb4311610102578063c046372c11610095578063cfe0581211610064578063cfe0581214610705578063e985e9c514610730578063f06f31c51461076d578063f2fde38b14610796576101e3565b8063c046372c14610642578063c78f19f914610672578063c87b56dd1461069d578063ccb4918d146106da576101e3565b80638da5cb5b116100d15780638da5cb5b1461059a57806395d89b41146105c5578063a22cb465146105f0578063b88d4fde14610619576101e3565b806370cbcb4314610504578063715018a61461052f578063732e8d73146105465780637c726b6914610571576101e3565b80632f745c591161017a5780634f6ccce7116101495780634f6ccce7146104105780636352211e1461044d5780636f1a0af51461048a57806370a08231146104c7576101e3565b80632f745c591461034257806336b536be1461037f57806342842e0e146103aa57806343d32ae7146103d3576101e3565b806318160ddd116101b657806318160ddd146102b657806321f422e5146102e157806323b872dd146102fd578063243adbdd14610326576101e3565b806301ffc9a7146101e857806306fdde0314610225578063081812fc14610250578063095ea7b31461028d575b600080fd5b3480156101f457600080fd5b5061020f600480360381019061020a9190613972565b6107bf565b60405161021c91906139ba565b60405180910390f35b34801561023157600080fd5b5061023a6107d1565b6040516102479190613a6e565b60405180910390f35b34801561025c57600080fd5b5061027760048036038101906102729190613ac6565b610863565b6040516102849190613b34565b60405180910390f35b34801561029957600080fd5b506102b460048036038101906102af9190613b7b565b6108a9565b005b3480156102c257600080fd5b506102cb6109c1565b6040516102d89190613bca565b60405180910390f35b6102fb60048036038101906102f69190613be5565b6109ce565b005b34801561030957600080fd5b50610324600480360381019061031f9190613c25565b610b4a565b005b610340600480360381019061033b9190613ac6565b610baa565b005b34801561034e57600080fd5b5061036960048036038101906103649190613b7b565b610d14565b6040516103769190613bca565b60405180910390f35b34801561038b57600080fd5b50610394610db9565b6040516103a19190613e27565b60405180910390f35b3480156103b657600080fd5b506103d160048036038101906103cc9190613c25565b610fe6565b005b3480156103df57600080fd5b506103fa60048036038101906103f59190613f7e565b611006565b60405161040791906139ba565b60405180910390f35b34801561041c57600080fd5b5061043760048036038101906104329190613ac6565b611042565b6040516104449190613bca565b60405180910390f35b34801561045957600080fd5b50610474600480360381019061046f9190613ac6565b6110b3565b6040516104819190613b34565b60405180910390f35b34801561049657600080fd5b506104b160048036038101906104ac9190613ac6565b61113a565b6040516104be919061403d565b60405180910390f35b3480156104d357600080fd5b506104ee60048036038101906104e9919061405f565b61127e565b6040516104fb9190613bca565b60405180910390f35b34801561051057600080fd5b50610519611336565b6040516105269190613e27565b60405180910390f35b34801561053b57600080fd5b506105446115fa565b005b34801561055257600080fd5b5061055b61160e565b6040516105689190613e27565b60405180910390f35b34801561057d57600080fd5b5061059860048036038101906105939190613ac6565b61181c565b005b3480156105a657600080fd5b506105af611871565b6040516105bc9190613b34565b60405180910390f35b3480156105d157600080fd5b506105da61189b565b6040516105e79190613a6e565b60405180910390f35b3480156105fc57600080fd5b50610617600480360381019061061291906140b8565b61192d565b005b34801561062557600080fd5b50610640600480360381019061063b9190614199565b611943565b005b61065c6004803603810190610657919061421c565b6119a5565b6040516106699190613bca565b60405180910390f35b34801561067e57600080fd5b50610687611ab7565b6040516106949190613bca565b60405180910390f35b3480156106a957600080fd5b506106c460048036038101906106bf9190613ac6565b611abd565b6040516106d19190613a6e565b60405180910390f35b3480156106e657600080fd5b506106ef611acf565b6040516106fc9190613bca565b60405180910390f35b34801561071157600080fd5b5061071a611ae0565b60405161072791906142d7565b60405180910390f35b34801561073c57600080fd5b50610757600480360381019061075291906142f2565b611b06565b60405161076491906139ba565b60405180910390f35b34801561077957600080fd5b50610794600480360381019061078f9190613ac6565b611b9a565b005b3480156107a257600080fd5b506107bd60048036038101906107b8919061405f565b611d92565b005b60006107ca82611e16565b9050919050565b6060600080546107e090614361565b80601f016020809104026020016040519081016040528092919081815260200182805461080c90614361565b80156108595780601f1061082e57610100808354040283529160200191610859565b820191906000526020600020905b81548152906001019060200180831161083c57829003601f168201915b5050505050905090565b600061086e82611e90565b6004600083815260200190815260200160002060009054906101000a900473ffffffffffffffffffffffffffffffffffffffff169050919050565b60006108b4826110b3565b90508073ffffffffffffffffffffffffffffffffffffffff168373ffffffffffffffffffffffffffffffffffffffff161415610925576040517f08c379a000000000000000000000000000000000000000000000000000000000815260040161091c90614405565b60405180910390fd5b8073ffffffffffffffffffffffffffffffffffffffff16610944611edb565b73ffffffffffffffffffffffffffffffffffffffff16148061097357506109728161096d611edb565b611b06565b5b6109b2576040517f08c379a00000000000000000000000000000000000000000000000000000000081526004016109a990614497565b60405180910390fd5b6109bc8383611ee3565b505050565b6000600980549050905090565b3373ffffffffffffffffffffffffffffffffffffffff166109ee836110b3565b73ffffffffffffffffffffffffffffffffffffffff1614610a44576040517f08c379a0000000000000000000000000000000000000000000000000000000008152600401610a3b90614503565b60405180910390fd5b600015156011600084815260200190815260200160002060020160149054906101000a900460ff16151514610aae576040517f08c379a0000000000000000000000000000000000000000000000000000000008152600401610aa59061456f565b60405180910390fd5b600c543414610af2576040517f08c379a0000000000000000000000000000000000000000000000000000000008152600401610ae990614601565b60405180910390fd5b60016011600084815260200190815260200160002060020160146101000a81548160ff021916908315150217905550806011600084815260200190815260200160002060010181905550610b46600e611f9c565b5050565b610b5b610b55611edb565b82611fb2565b610b9a576040517f08c379a0000000000000000000000000000000000000000000000000000000008152600401610b9190614693565b60405180910390fd5b610ba5838383612047565b505050565b6000601160008381526020019081526020016000206001015490506000610bd0836110b3565b90508073ffffffffffffffffffffffffffffffffffffffff163373ffffffffffffffffffffffffffffffffffffffff161415610c41576040517f08c379a0000000000000000000000000000000000000000000000000000000008152600401610c38906146ff565b60405180910390fd5b81341015610c84576040517f08c379a0000000000000000000000000000000000000000000000000000000008152600401610c7b9061476b565b60405180910390fd5b60006011600085815260200190815260200160002060020160146101000a81548160ff021916908315150217905550610cbd600e612341565b610cc8813385612047565b8073ffffffffffffffffffffffffffffffffffffffff166108fc349081150290604051600060405180830381858888f19350505050158015610d0e573d6000803e3d6000fd5b50505050565b6000610d1f8361127e565b8210610d60576040517f08c379a0000000000000000000000000000000000000000000000000000000008152600401610d57906147fd565b60405180910390fd5b600760008473ffffffffffffffffffffffffffffffffffffffff1673ffffffffffffffffffffffffffffffffffffffff168152602001908152602001600020600083815260200190815260200160002054905092915050565b60606000610dc56109c1565b9050600080610dd4600e61239d565b67ffffffffffffffff811115610ded57610dec613e53565b5b604051908082528060200260200182016040528015610e2657816020015b610e1361381c565b815260200190600190039081610e0b5790505b50905060005b83811015610fdc576000610e3f82611042565b90506000601160008381526020019081526020016000209050600115158160020160149054906101000a900460ff1615151415610fc757806040518060a001604052908160008201548152602001600182015481526020016002820160009054906101000a900473ffffffffffffffffffffffffffffffffffffffff1673ffffffffffffffffffffffffffffffffffffffff1673ffffffffffffffffffffffffffffffffffffffff1681526020016002820160149054906101000a900460ff16151515158152602001600382018054610f1790614361565b80601f0160208091040260200160405190810160405280929190818152602001828054610f4390614361565b8015610f905780601f10610f6557610100808354040283529160200191610f90565b820191906000526020600020905b815481529060010190602001808311610f7357829003601f168201915b505050505081525050848681518110610fac57610fab61481d565b5b6020026020010181905250600185610fc4919061487b565b94505b50508080610fd4906148d1565b915050610e2c565b5080935050505090565b61100183838360405180602001604052806000815250611943565b505050565b60006001151560108360405161101c9190614956565b908152602001604051809103902060009054906101000a900460ff161515149050919050565b600061104c6109c1565b821061108d576040517f08c379a0000000000000000000000000000000000000000000000000000000008152600401611084906149df565b60405180910390fd5b600982815481106110a1576110a061481d565b5b90600052602060002001549050919050565b6000806110bf836123ab565b9050600073ffffffffffffffffffffffffffffffffffffffff168173ffffffffffffffffffffffffffffffffffffffff161415611131576040517f08c379a000000000000000000000000000000000000000000000000000000000815260040161112890614a4b565b60405180910390fd5b80915050919050565b61114261381c565b601160008381526020019081526020016000206040518060a001604052908160008201548152602001600182015481526020016002820160009054906101000a900473ffffffffffffffffffffffffffffffffffffffff1673ffffffffffffffffffffffffffffffffffffffff1673ffffffffffffffffffffffffffffffffffffffff1681526020016002820160149054906101000a900460ff161515151581526020016003820180546111f590614361565b80601f016020809104026020016040519081016040528092919081815260200182805461122190614361565b801561126e5780601f106112435761010080835404028352916020019161126e565b820191906000526020600020905b81548152906001019060200180831161125157829003601f168201915b5050505050815250509050919050565b60008073ffffffffffffffffffffffffffffffffffffffff168273ffffffffffffffffffffffffffffffffffffffff1614156112ef576040517f08c379a00000000000000000000000000000000000000000000000000000000081526004016112e690614add565b60405180910390fd5b600360008373ffffffffffffffffffffffffffffffffffffffff1673ffffffffffffffffffffffffffffffffffffffff168152602001908152602001600020549050919050565b6060600073ffffffffffffffffffffffffffffffffffffffff163373ffffffffffffffffffffffffffffffffffffffff161461159a5760006113773361127e565b905060008167ffffffffffffffff81111561139557611394613e53565b5b6040519080825280602002602001820160405280156113ce57816020015b6113bb61381c565b8152602001906001900390816113b35790505b50905060005b8281101561158f5760006113e83383610d14565b90506000601160008381526020019081526020016000206040518060a001604052908160008201548152602001600182015481526020016002820160009054906101000a900473ffffffffffffffffffffffffffffffffffffffff1673ffffffffffffffffffffffffffffffffffffffff1673ffffffffffffffffffffffffffffffffffffffff1681526020016002820160149054906101000a900460ff1615151515815260200160038201805461149f90614361565b80601f01602080910402602001604051908101604052809291908181526020018280546114cb90614361565b80156115185780601f106114ed57610100808354040283529160200191611518565b820191906000526020600020905b8154815290600101906020018083116114fb57829003601f168201915b505050505081525050905033816040019073ffffffffffffffffffffffffffffffffffffffff16908173ffffffffffffffffffffffffffffffffffffffff16815250508084848151811061156f5761156e61481d565b5b602002602001018190525050508080611587906148d1565b9150506113d4565b5080925050506115f7565b60008067ffffffffffffffff8111156115b6576115b5613e53565b5b6040519080825280602002602001820160405280156115ef57816020015b6115dc61381c565b8152602001906001900390816115d45790505b509050809150505b90565b6116026123e8565b61160c6000612466565b565b6060600061161a6109c1565b9050600080611629600f61239d565b67ffffffffffffffff81111561164257611641613e53565b5b60405190808252806020026020018201604052801561167b57816020015b61166861381c565b8152602001906001900390816116605790505b50905060005b8381101561181257600061169482611042565b90506000601160008381526020019081526020016000209050806040518060a001604052908160008201548152602001600182015481526020016002820160009054906101000a900473ffffffffffffffffffffffffffffffffffffffff1673ffffffffffffffffffffffffffffffffffffffff1673ffffffffffffffffffffffffffffffffffffffff1681526020016002820160149054906101000a900460ff1615151515815260200160038201805461174e90614361565b80601f016020809104026020016040519081016040528092919081815260200182805461177a90614361565b80156117c75780601f1061179c576101008083540402835291602001916117c7565b820191906000526020600020905b8154815290600101906020018083116117aa57829003601f168201915b5050505050815250508486815181106117e3576117e261481d565b5b60200260200101819052506001856117fb919061487b565b94505050808061180a906148d1565b915050611681565b5080935050505090565b6118246123e8565b60008111611867576040517f08c379a000000000000000000000000000000000000000000000000000000000815260040161185e90614b49565b60405180910390fd5b80600c8190555050565b6000600b60009054906101000a900473ffffffffffffffffffffffffffffffffffffffff16905090565b6060600180546118aa90614361565b80601f01602080910402602001604051908101604052809291908181526020018280546118d690614361565b80156119235780601f106118f857610100808354040283529160200191611923565b820191906000526020600020905b81548152906001019060200180831161190657829003601f168201915b5050505050905090565b61193f611938611edb565b838361252c565b5050565b61195461194e611edb565b83611fb2565b611993576040517f08c379a000000000000000000000000000000000000000000000000000000000815260040161198a90614693565b60405180910390fd5b61199f84848484612699565b50505050565b60006119b083611006565b156119f0576040517f08c379a00000000000000000000000000000000000000000000000000000000081526004016119e790614bb5565b60405180910390fd5b600c54341015611a35576040517f08c379a0000000000000000000000000000000000000000000000000000000008152600401611a2c90614601565b60405180910390fd5b611a3f600f611f9c565b611a49600e611f9c565b6000611a55600f61239d565b9050611a6133826126f5565b611a6b8185612713565b611a76818486612787565b6001601085604051611a889190614956565b908152602001604051809103902060006101000a81548160ff0219169083151502179055508091505092915050565b600c5481565b6060611ac8826128fb565b9050919050565b6000611adb600e61239d565b905090565b600d60009054906101000a900473ffffffffffffffffffffffffffffffffffffffff1681565b6000600560008473ffffffffffffffffffffffffffffffffffffffff1673ffffffffffffffffffffffffffffffffffffffff16815260200190815260200160002060008373ffffffffffffffffffffffffffffffffffffffff1673ffffffffffffffffffffffffffffffffffffffff16815260200190815260200160002060009054906101000a900460ff16905092915050565b6000601160008381526020019081526020016000206001015490506000611bc0836110b3565b90506000600d60009054906101000a900473ffffffffffffffffffffffffffffffffffffffff1673ffffffffffffffffffffffffffffffffffffffff166370a08231306040518263ffffffff1660e01b8152600401611c1f9190613b34565b60206040518083038186803b158015611c3757600080fd5b505afa158015611c4b573d6000803e3d6000fd5b505050506040513d601f19601f82011682018060405250810190611c6f9190614bea565b90506000670de0b6b3a7640000600a85611c899190614c17565b611c939190614c17565b90508273ffffffffffffffffffffffffffffffffffffffff163373ffffffffffffffffffffffffffffffffffffffff161415611d04576040517f08c379a0000000000000000000000000000000000000000000000000000000008152600401611cfb906146ff565b60405180910390fd5b80821015611d47576040517f08c379a0000000000000000000000000000000000000000000000000000000008152600401611d3e90614cbd565b60405180910390fd5b60006011600087815260200190815260200160002060020160146101000a81548160ff021916908315150217905550611d80600e612341565b611d8b833387612047565b5050505050565b611d9a6123e8565b600073ffffffffffffffffffffffffffffffffffffffff168173ffffffffffffffffffffffffffffffffffffffff161415611e0a576040517f08c379a0000000000000000000000000000000000000000000000000000000008152600401611e0190614d4f565b60405180910390fd5b611e1381612466565b50565b60007f780e9d63000000000000000000000000000000000000000000000000000000007bffffffffffffffffffffffffffffffffffffffffffffffffffffffff1916827bffffffffffffffffffffffffffffffffffffffffffffffffffffffff19161480611e895750611e8882612a0e565b5b9050919050565b611e9981612af0565b611ed8576040517f08c379a0000000000000000000000000000000000000000000000000000000008152600401611ecf90614a4b565b60405180910390fd5b50565b600033905090565b816004600083815260200190815260200160002060006101000a81548173ffffffffffffffffffffffffffffffffffffffff021916908373ffffffffffffffffffffffffffffffffffffffff160217905550808273ffffffffffffffffffffffffffffffffffffffff16611f56836110b3565b73ffffffffffffffffffffffffffffffffffffffff167f8c5be1e5ebec7d5bd14f71427d1e84f3dd0314c0f7b2291e5b200ac8c7c3b92560405160405180910390a45050565b6001816000016000828254019250508190555050565b600080611fbe836110b3565b90508073ffffffffffffffffffffffffffffffffffffffff168473ffffffffffffffffffffffffffffffffffffffff1614806120005750611fff8185611b06565b5b8061203e57508373ffffffffffffffffffffffffffffffffffffffff1661202684610863565b73ffffffffffffffffffffffffffffffffffffffff16145b91505092915050565b8273ffffffffffffffffffffffffffffffffffffffff16612067826110b3565b73ffffffffffffffffffffffffffffffffffffffff16146120bd576040517f08c379a00000000000000000000000000000000000000000000000000000000081526004016120b490614de1565b60405180910390fd5b600073ffffffffffffffffffffffffffffffffffffffff168273ffffffffffffffffffffffffffffffffffffffff16141561212d576040517f08c379a000000000000000000000000000000000000000000000000000000000815260040161212490614e73565b60405180910390fd5b61213a8383836001612b31565b8273ffffffffffffffffffffffffffffffffffffffff1661215a826110b3565b73ffffffffffffffffffffffffffffffffffffffff16146121b0576040517f08c379a00000000000000000000000000000000000000000000000000000000081526004016121a790614de1565b60405180910390fd5b6004600082815260200190815260200160002060006101000a81549073ffffffffffffffffffffffffffffffffffffffff02191690556001600360008573ffffffffffffffffffffffffffffffffffffffff1673ffffffffffffffffffffffffffffffffffffffff168152602001908152602001600020600082825403925050819055506001600360008473ffffffffffffffffffffffffffffffffffffffff1673ffffffffffffffffffffffffffffffffffffffff16815260200190815260200160002060008282540192505081905550816002600083815260200190815260200160002060006101000a81548173ffffffffffffffffffffffffffffffffffffffff021916908373ffffffffffffffffffffffffffffffffffffffff160217905550808273ffffffffffffffffffffffffffffffffffffffff168473ffffffffffffffffffffffffffffffffffffffff167fddf252ad1be2c89b69c2b068fc378daa952ba7f163c4a11628f55a4df523b3ef60405160405180910390a461233c8383836001612b43565b505050565b6000816000015490506000811161238d576040517f08c379a000000000000000000000000000000000000000000000000000000000815260040161238490614edf565b60405180910390fd5b6001810382600001819055505050565b600081600001549050919050565b60006002600083815260200190815260200160002060009054906101000a900473ffffffffffffffffffffffffffffffffffffffff169050919050565b6123f0611edb565b73ffffffffffffffffffffffffffffffffffffffff1661240e611871565b73ffffffffffffffffffffffffffffffffffffffff1614612464576040517f08c379a000000000000000000000000000000000000000000000000000000000815260040161245b90614f4b565b60405180910390fd5b565b6000600b60009054906101000a900473ffffffffffffffffffffffffffffffffffffffff16905081600b60006101000a81548173ffffffffffffffffffffffffffffffffffffffff021916908373ffffffffffffffffffffffffffffffffffffffff1602179055508173ffffffffffffffffffffffffffffffffffffffff168173ffffffffffffffffffffffffffffffffffffffff167f8be0079c531659141344cd1fd0a4f28419497f9722a3daafe3b4186f6b6457e060405160405180910390a35050565b8173ffffffffffffffffffffffffffffffffffffffff168373ffffffffffffffffffffffffffffffffffffffff16141561259b576040517f08c379a000000000000000000000000000000000000000000000000000000000815260040161259290614fb7565b60405180910390fd5b80600560008573ffffffffffffffffffffffffffffffffffffffff1673ffffffffffffffffffffffffffffffffffffffff16815260200190815260200160002060008473ffffffffffffffffffffffffffffffffffffffff1673ffffffffffffffffffffffffffffffffffffffff16815260200190815260200160002060006101000a81548160ff0219169083151502179055508173ffffffffffffffffffffffffffffffffffffffff168373ffffffffffffffffffffffffffffffffffffffff167f17307eab39ab6107e8899845ad3d59bd9653f200f220920489ca2b5937696c318360405161268c91906139ba565b60405180910390a3505050565b6126a4848484612047565b6126b084848484612b49565b6126ef576040517f08c379a00000000000000000000000000000000000000000000000000000000081526004016126e690615049565b60405180910390fd5b50505050565b61270f828260405180602001604052806000815250612ce0565b5050565b61271c82612af0565b61275b576040517f08c379a0000000000000000000000000000000000000000000000000000000008152600401612752906150db565b60405180910390fd5b80600660008481526020019081526020016000209080519060200190612782929190613863565b505050565b600082116127ca576040517f08c379a00000000000000000000000000000000000000000000000000000000081526004016127c190614b49565b60405180910390fd5b6040518060a001604052808481526020018381526020013373ffffffffffffffffffffffffffffffffffffffff1681526020016000151581526020018281525060116000858152602001908152602001600020600082015181600001556020820151816001015560408201518160020160006101000a81548173ffffffffffffffffffffffffffffffffffffffff021916908373ffffffffffffffffffffffffffffffffffffffff16021790555060608201518160020160146101000a81548160ff02191690831515021790555060808201518160030190805190602001906128b4929190613863565b509050507f470031062672bc0246e132c723a729c4676710ec663a29e86c88678032daddea83833360006040516128ee94939291906150fb565b60405180910390a1505050565b606061290682611e90565b600060066000848152602001908152602001600020805461292690614361565b80601f016020809104026020016040519081016040528092919081815260200182805461295290614361565b801561299f5780601f106129745761010080835404028352916020019161299f565b820191906000526020600020905b81548152906001019060200180831161298257829003601f168201915b5050505050905060006129b0612d3b565b90506000815114156129c6578192505050612a09565b6000825111156129fb5780826040516020016129e3929190615140565b60405160208183030381529060405292505050612a09565b612a0484612d52565b925050505b919050565b60007f80ac58cd000000000000000000000000000000000000000000000000000000007bffffffffffffffffffffffffffffffffffffffffffffffffffffffff1916827bffffffffffffffffffffffffffffffffffffffffffffffffffffffff19161480612ad957507f5b5e139f000000000000000000000000000000000000000000000000000000007bffffffffffffffffffffffffffffffffffffffffffffffffffffffff1916827bffffffffffffffffffffffffffffffffffffffffffffffffffffffff1916145b80612ae95750612ae882612dba565b5b9050919050565b60008073ffffffffffffffffffffffffffffffffffffffff16612b12836123ab565b73ffffffffffffffffffffffffffffffffffffffff1614159050919050565b612b3d84848484612e24565b50505050565b50505050565b6000612b6a8473ffffffffffffffffffffffffffffffffffffffff16612f84565b15612cd3578373ffffffffffffffffffffffffffffffffffffffff1663150b7a02612b93611edb565b8786866040518563ffffffff1660e01b8152600401612bb594939291906151b9565b602060405180830381600087803b158015612bcf57600080fd5b505af1925050508015612c0057506040513d601f19601f82011682018060405250810190612bfd919061521a565b60015b612c83573d8060008114612c30576040519150601f19603f3d011682016040523d82523d6000602084013e612c35565b606091505b50600081511415612c7b576040517f08c379a0000000000000000000000000000000000000000000000000000000008152600401612c7290615049565b60405180910390fd5b805181602001fd5b63150b7a0260e01b7bffffffffffffffffffffffffffffffffffffffffffffffffffffffff1916817bffffffffffffffffffffffffffffffffffffffffffffffffffffffff191614915050612cd8565b600190505b949350505050565b612cea8383612fa7565b612cf76000848484612b49565b612d36576040517f08c379a0000000000000000000000000000000000000000000000000000000008152600401612d2d90615049565b60405180910390fd5b505050565b606060405180602001604052806000815250905090565b6060612d5d82611e90565b6000612d67612d3b565b90506000815111612d875760405180602001604052806000815250612db2565b80612d91846131c5565b604051602001612da2929190615140565b6040516020818303038152906040525b915050919050565b60007f01ffc9a7000000000000000000000000000000000000000000000000000000007bffffffffffffffffffffffffffffffffffffffffffffffffffffffff1916827bffffffffffffffffffffffffffffffffffffffffffffffffffffffff1916149050919050565b612e308484848461329d565b6001811115612e74576040517f08c379a0000000000000000000000000000000000000000000000000000000008152600401612e6b906152b9565b60405180910390fd5b6000829050600073ffffffffffffffffffffffffffffffffffffffff168573ffffffffffffffffffffffffffffffffffffffff161415612ebc57612eb7816133c3565b612efb565b8373ffffffffffffffffffffffffffffffffffffffff168573ffffffffffffffffffffffffffffffffffffffff1614612efa57612ef9858261340c565b5b5b600073ffffffffffffffffffffffffffffffffffffffff168473ffffffffffffffffffffffffffffffffffffffff161415612f3e57612f3981613579565b612f7d565b8473ffffffffffffffffffffffffffffffffffffffff168473ffffffffffffffffffffffffffffffffffffffff1614612f7c57612f7b848261364a565b5b5b5050505050565b6000808273ffffffffffffffffffffffffffffffffffffffff163b119050919050565b600073ffffffffffffffffffffffffffffffffffffffff168273ffffffffffffffffffffffffffffffffffffffff161415613017576040517f08c379a000000000000000000000000000000000000000000000000000000000815260040161300e90615325565b60405180910390fd5b61302081612af0565b15613060576040517f08c379a000000000000000000000000000000000000000000000000000000000815260040161305790615391565b60405180910390fd5b61306e600083836001612b31565b61307781612af0565b156130b7576040517f08c379a00000000000000000000000000000000000000000000000000000000081526004016130ae90615391565b60405180910390fd5b6001600360008473ffffffffffffffffffffffffffffffffffffffff1673ffffffffffffffffffffffffffffffffffffffff16815260200190815260200160002060008282540192505081905550816002600083815260200190815260200160002060006101000a81548173ffffffffffffffffffffffffffffffffffffffff021916908373ffffffffffffffffffffffffffffffffffffffff160217905550808273ffffffffffffffffffffffffffffffffffffffff16600073ffffffffffffffffffffffffffffffffffffffff167fddf252ad1be2c89b69c2b068fc378daa952ba7f163c4a11628f55a4df523b3ef60405160405180910390a46131c1600083836001612b43565b5050565b6060600060016131d4846136c9565b01905060008167ffffffffffffffff8111156131f3576131f2613e53565b5b6040519080825280601f01601f1916602001820160405280156132255781602001600182028036833780820191505090505b509050600082602001820190505b600115613292578080600190039150507f3031323334353637383961626364656600000000000000000000000000000000600a86061a8153600a858161327c5761327b6153b1565b5b049450600085141561328d57613292565b613233565b819350505050919050565b60018111156133bd57600073ffffffffffffffffffffffffffffffffffffffff168473ffffffffffffffffffffffffffffffffffffffff16146133315780600360008673ffffffffffffffffffffffffffffffffffffffff1673ffffffffffffffffffffffffffffffffffffffff168152602001908152602001600020600082825461332991906153e0565b925050819055505b600073ffffffffffffffffffffffffffffffffffffffff168373ffffffffffffffffffffffffffffffffffffffff16146133bc5780600360008573ffffffffffffffffffffffffffffffffffffffff1673ffffffffffffffffffffffffffffffffffffffff16815260200190815260200160002060008282546133b4919061487b565b925050819055505b5b50505050565b600980549050600a600083815260200190815260200160002081905550600981908060018154018082558091505060019003906000526020600020016000909190919091505550565b600060016134198461127e565b61342391906153e0565b9050600060086000848152602001908152602001600020549050818114613508576000600760008673ffffffffffffffffffffffffffffffffffffffff1673ffffffffffffffffffffffffffffffffffffffff168152602001908152602001600020600084815260200190815260200160002054905080600760008773ffffffffffffffffffffffffffffffffffffffff1673ffffffffffffffffffffffffffffffffffffffff168152602001908152602001600020600084815260200190815260200160002081905550816008600083815260200190815260200160002081905550505b6008600084815260200190815260200160002060009055600760008573ffffffffffffffffffffffffffffffffffffffff1673ffffffffffffffffffffffffffffffffffffffff16815260200190815260200160002060008381526020019081526020016000206000905550505050565b6000600160098054905061358d91906153e0565b90506000600a60008481526020019081526020016000205490506000600983815481106135bd576135bc61481d565b5b9060005260206000200154905080600983815481106135df576135de61481d565b5b906000526020600020018190555081600a600083815260200190815260200160002081905550600a600085815260200190815260200160002060009055600980548061362e5761362d615414565b5b6001900381819060005260206000200160009055905550505050565b60006136558361127e565b905081600760008573ffffffffffffffffffffffffffffffffffffffff1673ffffffffffffffffffffffffffffffffffffffff168152602001908152602001600020600083815260200190815260200160002081905550806008600084815260200190815260200160002081905550505050565b600080600090507a184f03e93ff9f4daa797ed6e38ed64bf6a1f0100000000000000008310613727577a184f03e93ff9f4daa797ed6e38ed64bf6a1f010000000000000000838161371d5761371c6153b1565b5b0492506040810190505b6d04ee2d6d415b85acef81000000008310613764576d04ee2d6d415b85acef8100000000838161375a576137596153b1565b5b0492506020810190505b662386f26fc10000831061379357662386f26fc100008381613789576137886153b1565b5b0492506010810190505b6305f5e10083106137bc576305f5e10083816137b2576137b16153b1565b5b0492506008810190505b61271083106137e15761271083816137d7576137d66153b1565b5b0492506004810190505b6064831061380457606483816137fa576137f96153b1565b5b0492506002810190505b600a8310613813576001810190505b80915050919050565b6040518060a001604052806000815260200160008152602001600073ffffffffffffffffffffffffffffffffffffffff168152602001600015158152602001606081525090565b82805461386f90614361565b90600052602060002090601f01602090048101928261389157600085556138d8565b82601f106138aa57805160ff19168380011785556138d8565b828001600101855582156138d8579182015b828111156138d75782518255916020019190600101906138bc565b5b5090506138e591906138e9565b5090565b5b808211156139025760008160009055506001016138ea565b5090565b6000604051905090565b600080fd5b600080fd5b60007fffffffff0000000000000000000000000000000000000000000000000000000082169050919050565b61394f8161391a565b811461395a57600080fd5b50565b60008135905061396c81613946565b92915050565b60006020828403121561398857613987613910565b5b60006139968482850161395d565b91505092915050565b60008115159050919050565b6139b48161399f565b82525050565b60006020820190506139cf60008301846139ab565b92915050565b600081519050919050565b600082825260208201905092915050565b60005b83811015613a0f5780820151818401526020810190506139f4565b83811115613a1e576000848401525b50505050565b6000601f19601f8301169050919050565b6000613a40826139d5565b613a4a81856139e0565b9350613a5a8185602086016139f1565b613a6381613a24565b840191505092915050565b60006020820190508181036000830152613a888184613a35565b905092915050565b6000819050919050565b613aa381613a90565b8114613aae57600080fd5b50565b600081359050613ac081613a9a565b92915050565b600060208284031215613adc57613adb613910565b5b6000613aea84828501613ab1565b91505092915050565b600073ffffffffffffffffffffffffffffffffffffffff82169050919050565b6000613b1e82613af3565b9050919050565b613b2e81613b13565b82525050565b6000602082019050613b496000830184613b25565b92915050565b613b5881613b13565b8114613b6357600080fd5b50565b600081359050613b7581613b4f565b92915050565b60008060408385031215613b9257613b91613910565b5b6000613ba085828601613b66565b9250506020613bb185828601613ab1565b9150509250929050565b613bc481613a90565b82525050565b6000602082019050613bdf6000830184613bbb565b92915050565b60008060408385031215613bfc57613bfb613910565b5b6000613c0a85828601613ab1565b9250506020613c1b85828601613ab1565b9150509250929050565b600080600060608486031215613c3e57613c3d613910565b5b6000613c4c86828701613b66565b9350506020613c5d86828701613b66565b9250506040613c6e86828701613ab1565b9150509250925092565b600081519050919050565b600082825260208201905092915050565b6000819050602082019050919050565b613cad81613a90565b82525050565b613cbc81613b13565b82525050565b613ccb8161399f565b82525050565b600082825260208201905092915050565b6000613ced826139d5565b613cf78185613cd1565b9350613d078185602086016139f1565b613d1081613a24565b840191505092915050565b600060a083016000830151613d336000860182613ca4565b506020830151613d466020860182613ca4565b506040830151613d596040860182613cb3565b506060830151613d6c6060860182613cc2565b5060808301518482036080860152613d848282613ce2565b9150508091505092915050565b6000613d9d8383613d1b565b905092915050565b6000602082019050919050565b6000613dbd82613c78565b613dc78185613c83565b935083602082028501613dd985613c94565b8060005b85811015613e155784840389528151613df68582613d91565b9450613e0183613da5565b925060208a01995050600181019050613ddd565b50829750879550505050505092915050565b60006020820190508181036000830152613e418184613db2565b905092915050565b600080fd5b600080fd5b7f4e487b7100000000000000000000000000000000000000000000000000000000600052604160045260246000fd5b613e8b82613a24565b810181811067ffffffffffffffff82111715613eaa57613ea9613e53565b5b80604052505050565b6000613ebd613906565b9050613ec98282613e82565b919050565b600067ffffffffffffffff821115613ee957613ee8613e53565b5b613ef282613a24565b9050602081019050919050565b82818337600083830152505050565b6000613f21613f1c84613ece565b613eb3565b905082815260208101848484011115613f3d57613f3c613e4e565b5b613f48848285613eff565b509392505050565b600082601f830112613f6557613f64613e49565b5b8135613f75848260208601613f0e565b91505092915050565b600060208284031215613f9457613f93613910565b5b600082013567ffffffffffffffff811115613fb257613fb1613915565b5b613fbe84828501613f50565b91505092915050565b600060a083016000830151613fdf6000860182613ca4565b506020830151613ff26020860182613ca4565b5060408301516140056040860182613cb3565b5060608301516140186060860182613cc2565b50608083015184820360808601526140308282613ce2565b9150508091505092915050565b600060208201905081810360008301526140578184613fc7565b905092915050565b60006020828403121561407557614074613910565b5b600061408384828501613b66565b91505092915050565b6140958161399f565b81146140a057600080fd5b50565b6000813590506140b28161408c565b92915050565b600080604083850312156140cf576140ce613910565b5b60006140dd85828601613b66565b92505060206140ee858286016140a3565b9150509250929050565b600067ffffffffffffffff82111561411357614112613e53565b5b61411c82613a24565b9050602081019050919050565b600061413c614137846140f8565b613eb3565b90508281526020810184848401111561415857614157613e4e565b5b614163848285613eff565b509392505050565b600082601f8301126141805761417f613e49565b5b8135614190848260208601614129565b91505092915050565b600080600080608085870312156141b3576141b2613910565b5b60006141c187828801613b66565b94505060206141d287828801613b66565b93505060406141e387828801613ab1565b925050606085013567ffffffffffffffff81111561420457614203613915565b5b6142108782880161416b565b91505092959194509250565b6000806040838503121561423357614232613910565b5b600083013567ffffffffffffffff81111561425157614250613915565b5b61425d85828601613f50565b925050602061426e85828601613ab1565b9150509250929050565b6000819050919050565b600061429d61429861429384613af3565b614278565b613af3565b9050919050565b60006142af82614282565b9050919050565b60006142c1826142a4565b9050919050565b6142d1816142b6565b82525050565b60006020820190506142ec60008301846142c8565b92915050565b6000806040838503121561430957614308613910565b5b600061431785828601613b66565b925050602061432885828601613b66565b9150509250929050565b7f4e487b7100000000000000000000000000000000000000000000000000000000600052602260045260246000fd5b6000600282049050600182168061437957607f821691505b6020821081141561438d5761438c614332565b5b50919050565b7f4552433732313a20617070726f76616c20746f2063757272656e74206f776e6560008201527f7200000000000000000000000000000000000000000000000000000000000000602082015250565b60006143ef6021836139e0565b91506143fa82614393565b604082019050919050565b6000602082019050818103600083015261441e816143e2565b9050919050565b7f4552433732313a20617070726f76652063616c6c6572206973206e6f7420746f60008201527f6b656e206f776e6572206f7220617070726f76656420666f7220616c6c000000602082015250565b6000614481603d836139e0565b915061448c82614425565b604082019050919050565b600060208201905081810360008301526144b081614474565b9050919050565b7f596f7520617265206e6f74206f776e6572206f662074686973206e6674000000600082015250565b60006144ed601d836139e0565b91506144f8826144b7565b602082019050919050565b6000602082019050818103600083015261451c816144e0565b9050919050565b7f4974656d20697320616c7265616479206f6e2073616c65000000000000000000600082015250565b60006145596017836139e0565b915061456482614523565b602082019050919050565b600060208201905081810360008301526145888161454c565b9050919050565b7f5072696365206d75737420626520657175616c20746f206c697374696e67207060008201527f7269636500000000000000000000000000000000000000000000000000000000602082015250565b60006145eb6024836139e0565b91506145f68261458f565b604082019050919050565b6000602082019050818103600083015261461a816145de565b9050919050565b7f4552433732313a2063616c6c6572206973206e6f7420746f6b656e206f776e6560008201527f72206f7220617070726f76656400000000000000000000000000000000000000602082015250565b600061467d602d836139e0565b915061468882614621565b604082019050919050565b600060208201905081810360008301526146ac81614670565b9050919050565b7f596f7520616c7265616479206f776e2074686973204e46540000000000000000600082015250565b60006146e96018836139e0565b91506146f4826146b3565b602082019050919050565b60006020820190508181036000830152614718816146dc565b9050919050565b7f506c65617365207375626d6974207468652061736b696e672070726963650000600082015250565b6000614755601e836139e0565b91506147608261471f565b602082019050919050565b6000602082019050818103600083015261478481614748565b9050919050565b7f455243373231456e756d657261626c653a206f776e657220696e646578206f7560008201527f74206f6620626f756e6473000000000000000000000000000000000000000000602082015250565b60006147e7602b836139e0565b91506147f28261478b565b604082019050919050565b60006020820190508181036000830152614816816147da565b9050919050565b7f4e487b7100000000000000000000000000000000000000000000000000000000600052603260045260246000fd5b7f4e487b7100000000000000000000000000000000000000000000000000000000600052601160045260246000fd5b600061488682613a90565b915061489183613a90565b9250827fffffffffffffffffffffffffffffffffffffffffffffffffffffffffffffffff038211156148c6576148c561484c565b5b828201905092915050565b60006148dc82613a90565b91507fffffffffffffffffffffffffffffffffffffffffffffffffffffffffffffffff82141561490f5761490e61484c565b5b600182019050919050565b600081905092915050565b6000614930826139d5565b61493a818561491a565b935061494a8185602086016139f1565b80840191505092915050565b60006149628284614925565b915081905092915050565b7f455243373231456e756d657261626c653a20676c6f62616c20696e646578206f60008201527f7574206f6620626f756e64730000000000000000000000000000000000000000602082015250565b60006149c9602c836139e0565b91506149d48261496d565b604082019050919050565b600060208201905081810360008301526149f8816149bc565b9050919050565b7f4552433732313a20696e76616c696420746f6b656e2049440000000000000000600082015250565b6000614a356018836139e0565b9150614a40826149ff565b602082019050919050565b60006020820190508181036000830152614a6481614a28565b9050919050565b7f4552433732313a2061646472657373207a65726f206973206e6f74206120766160008201527f6c6964206f776e65720000000000000000000000000000000000000000000000602082015250565b6000614ac76029836139e0565b9150614ad282614a6b565b604082019050919050565b60006020820190508181036000830152614af681614aba565b9050919050565b7f5072696365206d757374206265206174206c6561737420312077656900000000600082015250565b6000614b33601c836139e0565b9150614b3e82614afd565b602082019050919050565b60006020820190508181036000830152614b6281614b26565b9050919050565b7f546f6b656e2055524920616c7265616479206578697374730000000000000000600082015250565b6000614b9f6018836139e0565b9150614baa82614b69565b602082019050919050565b60006020820190508181036000830152614bce81614b92565b9050919050565b600081519050614be481613a9a565b92915050565b600060208284031215614c0057614bff613910565b5b6000614c0e84828501614bd5565b91505092915050565b6000614c2282613a90565b9150614c2d83613a90565b9250817fffffffffffffffffffffffffffffffffffffffffffffffffffffffffffffffff0483118215151615614c6657614c6561484c565b5b828202905092915050565b7f506c6561736520627579206d6f726520746f6b656e7300000000000000000000600082015250565b6000614ca76016836139e0565b9150614cb282614c71565b602082019050919050565b60006020820190508181036000830152614cd681614c9a565b9050919050565b7f4f776e61626c653a206e6577206f776e657220697320746865207a65726f206160008201527f6464726573730000000000000000000000000000000000000000000000000000602082015250565b6000614d396026836139e0565b9150614d4482614cdd565b604082019050919050565b60006020820190508181036000830152614d6881614d2c565b9050919050565b7f4552433732313a207472616e736665722066726f6d20696e636f72726563742060008201527f6f776e6572000000000000000000000000000000000000000000000000000000602082015250565b6000614dcb6025836139e0565b9150614dd682614d6f565b604082019050919050565b60006020820190508181036000830152614dfa81614dbe565b9050919050565b7f4552433732313a207472616e7366657220746f20746865207a65726f2061646460008201527f7265737300000000000000000000000000000000000000000000000000000000602082015250565b6000614e5d6024836139e0565b9150614e6882614e01565b604082019050919050565b60006020820190508181036000830152614e8c81614e50565b9050919050565b7f436f756e7465723a2064656372656d656e74206f766572666c6f770000000000600082015250565b6000614ec9601b836139e0565b9150614ed482614e93565b602082019050919050565b60006020820190508181036000830152614ef881614ebc565b9050919050565b7f4f776e61626c653a2063616c6c6572206973206e6f7420746865206f776e6572600082015250565b6000614f356020836139e0565b9150614f4082614eff565b602082019050919050565b60006020820190508181036000830152614f6481614f28565b9050919050565b7f4552433732313a20617070726f766520746f2063616c6c657200000000000000600082015250565b6000614fa16019836139e0565b9150614fac82614f6b565b602082019050919050565b60006020820190508181036000830152614fd081614f94565b9050919050565b7f4552433732313a207472616e7366657220746f206e6f6e20455243373231526560008201527f63656976657220696d706c656d656e7465720000000000000000000000000000602082015250565b60006150336032836139e0565b915061503e82614fd7565b604082019050919050565b6000602082019050818103600083015261506281615026565b9050919050565b7f45524337323155524953746f726167653a2055524920736574206f66206e6f6e60008201527f6578697374656e7420746f6b656e000000000000000000000000000000000000602082015250565b60006150c5602e836139e0565b91506150d082615069565b604082019050919050565b600060208201905081810360008301526150f4816150b8565b9050919050565b60006080820190506151106000830187613bbb565b61511d6020830186613bbb565b61512a6040830185613b25565b61513760608301846139ab565b95945050505050565b600061514c8285614925565b91506151588284614925565b91508190509392505050565b600081519050919050565b600082825260208201905092915050565b600061518b82615164565b615195818561516f565b93506151a58185602086016139f1565b6151ae81613a24565b840191505092915050565b60006080820190506151ce6000830187613b25565b6151db6020830186613b25565b6151e86040830185613bbb565b81810360608301526151fa8184615180565b905095945050505050565b60008151905061521481613946565b92915050565b6000602082840312156152305761522f613910565b5b600061523e84828501615205565b91505092915050565b7f455243373231456e756d657261626c653a20636f6e736563757469766520747260008201527f616e7366657273206e6f7420737570706f727465640000000000000000000000602082015250565b60006152a36035836139e0565b91506152ae82615247565b604082019050919050565b600060208201905081810360008301526152d281615296565b9050919050565b7f4552433732313a206d696e7420746f20746865207a65726f2061646472657373600082015250565b600061530f6020836139e0565b915061531a826152d9565b602082019050919050565b6000602082019050818103600083015261533e81615302565b9050919050565b7f4552433732313a20746f6b656e20616c7265616479206d696e74656400000000600082015250565b600061537b601c836139e0565b915061538682615345565b602082019050919050565b600060208201905081810360008301526153aa8161536e565b9050919050565b7f4e487b7100000000000000000000000000000000000000000000000000000000600052601260045260246000fd5b60006153eb82613a90565b91506153f683613a90565b9250828210156154095761540861484c565b5b828203905092915050565b7f4e487b7100000000000000000000000000000000000000000000000000000000600052603160045260246000fdfea26469706673582212209080b411c4b70e6ad165942e30bb356bc3f04773016673d14acf06a3516933a564736f6c63430008090033",
  "devdoc": {
    "kind": "dev",
    "methods": {
      "approve(address,uint256)": {
        "details": "See {IERC721-approve}."
      },
      "balanceOf(address)": {
        "details": "See {IERC721-balanceOf}."
      },
      "getApproved(uint256)": {
        "details": "See {IERC721-getApproved}."
      },
      "isApprovedForAll(address,address)": {
        "details": "See {IERC721-isApprovedForAll}."
      },
      "name()": {
        "details": "See {IERC721Metadata-name}."
      },
      "owner()": {
        "details": "Returns the address of the current owner."
      },
      "ownerOf(uint256)": {
        "details": "See {IERC721-ownerOf}."
      },
      "renounceOwnership()": {
        "details": "Leaves the contract without owner. It will not be possible to call `onlyOwner` functions anymore. Can only be called by the current owner. NOTE: Renouncing ownership will leave the contract without an owner, thereby removing any functionality that is only available to the owner."
      },
      "safeTransferFrom(address,address,uint256)": {
        "details": "See {IERC721-safeTransferFrom}."
      },
      "safeTransferFrom(address,address,uint256,bytes)": {
        "details": "See {IERC721-safeTransferFrom}."
      },
      "setApprovalForAll(address,bool)": {
        "details": "See {IERC721-setApprovalForAll}."
      },
      "symbol()": {
        "details": "See {IERC721Metadata-symbol}."
      },
      "tokenByIndex(uint256)": {
        "details": "See {IERC721Enumerable-tokenByIndex}."
      },
      "tokenOfOwnerByIndex(address,uint256)": {
        "details": "See {IERC721Enumerable-tokenOfOwnerByIndex}."
      },
      "totalSupply()": {
        "details": "See {IERC721Enumerable-totalSupply}."
      },
      "transferFrom(address,address,uint256)": {
        "details": "See {IERC721-transferFrom}."
      },
      "transferOwnership(address)": {
        "details": "Transfers ownership of the contract to a new account (`newOwner`). Can only be called by the current owner."
      }
    },
    "version": 1
  },
  "userdoc": {
    "kind": "user",
    "methods": {},
    "version": 1
  },
  "storageLayout": {
    "storage": [
      {
        "astId": 216,
        "contract": "contracts/NftMarket.sol:NftMarket",
        "label": "_name",
        "offset": 0,
        "slot": "0",
        "type": "t_string_storage"
      },
      {
        "astId": 218,
        "contract": "contracts/NftMarket.sol:NftMarket",
        "label": "_symbol",
        "offset": 0,
        "slot": "1",
        "type": "t_string_storage"
      },
      {
        "astId": 222,
        "contract": "contracts/NftMarket.sol:NftMarket",
        "label": "_owners",
        "offset": 0,
        "slot": "2",
        "type": "t_mapping(t_uint256,t_address)"
      },
      {
        "astId": 226,
        "contract": "contracts/NftMarket.sol:NftMarket",
        "label": "_balances",
        "offset": 0,
        "slot": "3",
        "type": "t_mapping(t_address,t_uint256)"
      },
      {
        "astId": 230,
        "contract": "contracts/NftMarket.sol:NftMarket",
        "label": "_tokenApprovals",
        "offset": 0,
        "slot": "4",
        "type": "t_mapping(t_uint256,t_address)"
      },
      {
        "astId": 236,
        "contract": "contracts/NftMarket.sol:NftMarket",
        "label": "_operatorApprovals",
        "offset": 0,
        "slot": "5",
        "type": "t_mapping(t_address,t_mapping(t_address,t_bool))"
      },
      {
        "astId": 1636,
        "contract": "contracts/NftMarket.sol:NftMarket",
        "label": "_tokenURIs",
        "offset": 0,
        "slot": "6",
        "type": "t_mapping(t_uint256,t_string_storage)"
      },
      {
        "astId": 1284,
        "contract": "contracts/NftMarket.sol:NftMarket",
        "label": "_ownedTokens",
        "offset": 0,
        "slot": "7",
        "type": "t_mapping(t_address,t_mapping(t_uint256,t_uint256))"
      },
      {
        "astId": 1288,
        "contract": "contracts/NftMarket.sol:NftMarket",
        "label": "_ownedTokensIndex",
        "offset": 0,
        "slot": "8",
        "type": "t_mapping(t_uint256,t_uint256)"
      },
      {
        "astId": 1291,
        "contract": "contracts/NftMarket.sol:NftMarket",
        "label": "_allTokens",
        "offset": 0,
        "slot": "9",
        "type": "t_array(t_uint256)dyn_storage"
      },
      {
        "astId": 1295,
        "contract": "contracts/NftMarket.sol:NftMarket",
        "label": "_allTokensIndex",
        "offset": 0,
        "slot": "10",
        "type": "t_mapping(t_uint256,t_uint256)"
      },
      {
        "astId": 7,
        "contract": "contracts/NftMarket.sol:NftMarket",
        "label": "_owner",
        "offset": 0,
        "slot": "11",
        "type": "t_address"
      },
      {
        "astId": 3340,
        "contract": "contracts/NftMarket.sol:NftMarket",
        "label": "listingPrice",
        "offset": 0,
        "slot": "12",
        "type": "t_uint256"
      },
      {
        "astId": 3343,
        "contract": "contracts/NftMarket.sol:NftMarket",
        "label": "TFT",
        "offset": 0,
        "slot": "13",
        "type": "t_contract(IERC20)190"
      },
      {
        "astId": 3346,
        "contract": "contracts/NftMarket.sol:NftMarket",
        "label": "_listedItems",
        "offset": 0,
        "slot": "14",
        "type": "t_struct(Counter)2164_storage"
      },
      {
        "astId": 3349,
        "contract": "contracts/NftMarket.sol:NftMarket",
        "label": "_tokenIds",
        "offset": 0,
        "slot": "15",
        "type": "t_struct(Counter)2164_storage"
      },
      {
        "astId": 3353,
        "contract": "contracts/NftMarket.sol:NftMarket",
        "label": "_usedTokenURIs",
        "offset": 0,
        "slot": "16",
        "type": "t_mapping(t_string_memory_ptr,t_bool)"
      },
      {
        "astId": 3358,
        "contract": "contracts/NftMarket.sol:NftMarket",
        "label": "_idToNftItem",
        "offset": 0,
        "slot": "17",
        "type": "t_mapping(t_uint256,t_struct(NftItem)3337_storage)"
      }
    ],
    "types": {
      "t_address": {
        "encoding": "inplace",
        "label": "address",
        "numberOfBytes": "20"
      },
      "t_array(t_uint256)dyn_storage": {
        "base": "t_uint256",
        "encoding": "dynamic_array",
        "label": "uint256[]",
        "numberOfBytes": "32"
      },
      "t_bool": {
        "encoding": "inplace",
        "label": "bool",
        "numberOfBytes": "1"
      },
      "t_contract(IERC20)190": {
        "encoding": "inplace",
        "label": "contract IERC20",
        "numberOfBytes": "20"
      },
      "t_mapping(t_address,t_bool)": {
        "encoding": "mapping",
        "key": "t_address",
        "label": "mapping(address => bool)",
        "numberOfBytes": "32",
        "value": "t_bool"
      },
      "t_mapping(t_address,t_mapping(t_address,t_bool))": {
        "encoding": "mapping",
        "key": "t_address",
        "label": "mapping(address => mapping(address => bool))",
        "numberOfBytes": "32",
        "value": "t_mapping(t_address,t_bool)"
      },
      "t_mapping(t_address,t_mapping(t_uint256,t_uint256))": {
        "encoding": "mapping",
        "key": "t_address",
        "label": "mapping(address => mapping(uint256 => uint256))",
        "numberOfBytes": "32",
        "value": "t_mapping(t_uint256,t_uint256)"
      },
      "t_mapping(t_address,t_uint256)": {
        "encoding": "mapping",
        "key": "t_address",
        "label": "mapping(address => uint256)",
        "numberOfBytes": "32",
        "value": "t_uint256"
      },
      "t_mapping(t_string_memory_ptr,t_bool)": {
        "encoding": "mapping",
        "key": "t_string_memory_ptr",
        "label": "mapping(string => bool)",
        "numberOfBytes": "32",
        "value": "t_bool"
      },
      "t_mapping(t_uint256,t_address)": {
        "encoding": "mapping",
        "key": "t_uint256",
        "label": "mapping(uint256 => address)",
        "numberOfBytes": "32",
        "value": "t_address"
      },
      "t_mapping(t_uint256,t_string_storage)": {
        "encoding": "mapping",
        "key": "t_uint256",
        "label": "mapping(uint256 => string)",
        "numberOfBytes": "32",
        "value": "t_string_storage"
      },
      "t_mapping(t_uint256,t_struct(NftItem)3337_storage)": {
        "encoding": "mapping",
        "key": "t_uint256",
        "label": "mapping(uint256 => struct NftMarket.NftItem)",
        "numberOfBytes": "32",
        "value": "t_struct(NftItem)3337_storage"
      },
      "t_mapping(t_uint256,t_uint256)": {
        "encoding": "mapping",
        "key": "t_uint256",
        "label": "mapping(uint256 => uint256)",
        "numberOfBytes": "32",
        "value": "t_uint256"
      },
      "t_string_memory_ptr": {
        "encoding": "bytes",
        "label": "string",
        "numberOfBytes": "32"
      },
      "t_string_storage": {
        "encoding": "bytes",
        "label": "string",
        "numberOfBytes": "32"
      },
      "t_struct(Counter)2164_storage": {
        "encoding": "inplace",
        "label": "struct Counters.Counter",
        "members": [
          {
            "astId": 2163,
            "contract": "contracts/NftMarket.sol:NftMarket",
            "label": "_value",
            "offset": 0,
            "slot": "0",
            "type": "t_uint256"
          }
        ],
        "numberOfBytes": "32"
      },
      "t_struct(NftItem)3337_storage": {
        "encoding": "inplace",
        "label": "struct NftMarket.NftItem",
        "members": [
          {
            "astId": 3328,
            "contract": "contracts/NftMarket.sol:NftMarket",
            "label": "tokenId",
            "offset": 0,
            "slot": "0",
            "type": "t_uint256"
          },
          {
            "astId": 3330,
            "contract": "contracts/NftMarket.sol:NftMarket",
            "label": "price",
            "offset": 0,
            "slot": "1",
            "type": "t_uint256"
          },
          {
            "astId": 3332,
            "contract": "contracts/NftMarket.sol:NftMarket",
            "label": "creator",
            "offset": 0,
            "slot": "2",
            "type": "t_address"
          },
          {
            "astId": 3334,
            "contract": "contracts/NftMarket.sol:NftMarket",
            "label": "isListed",
            "offset": 20,
            "slot": "2",
            "type": "t_bool"
          },
          {
            "astId": 3336,
            "contract": "contracts/NftMarket.sol:NftMarket",
            "label": "_tokenURI",
            "offset": 0,
            "slot": "3",
            "type": "t_string_storage"
          }
        ],
        "numberOfBytes": "128"
      },
      "t_uint256": {
        "encoding": "inplace",
        "label": "uint256",
        "numberOfBytes": "32"
      }
    }
  }
}