{
  "_format": "hh-sol-artifact-1",
  "contractName": "TFTToken",
  "sourceName": "contracts/TFTToken.sol",
  "abi": [
    {
      "inputs": [
        {
          "internalType": "uint256",
          "name": "reward",
          "type": "uint256"
        }
      ],
      "stateMutability": "nonpayable",
      "type": "constructor"
    },
    {
      "anonymous": false,
      "inputs": [
        {
          "indexed": true,
          "internalType": "address",
          "name": "owner",
          "type": "address"
        },
        {
          "indexed": true,
          "internalType": "address",
          "name": "spender",
          "type": "address"
        },
        {
          "indexed": false,
          "internalType": "uint256",
          "name": "value",
          "type": "uint256"
        }
      ],
      "name": "Approval",
      "type": "event"
    },
    {
      "anonymous": false,
      "inputs": [
        {
          "indexed": true,
          "internalType": "address",
          "name": "from",
          "type": "address"
        },
        {
          "indexed": true,
          "internalType": "uint256",
          "name": "amount",
          "type": "uint256"
        }
      ],
      "name": "Deposit",
      "type": "event"
    },
    {
      "anonymous": false,
      "inputs": [
        {
          "indexed": true,
          "internalType": "address",
          "name": "previousOwner",
          "type": "address"
        },
        {
          "indexed": true,
          "internalType": "address",
          "name": "newOwner",
          "type": "address"
        }
      ],
      "name": "OwnershipTransferred",
      "type": "event"
    },
    {
      "anonymous": false,
      "inputs": [
        {
          "indexed": true,
          "internalType": "address",
          "name": "from",
          "type": "address"
        },
        {
          "indexed": true,
          "internalType": "address",
          "name": "to",
          "type": "address"
        },
        {
          "indexed": false,
          "internalType": "uint256",
          "name": "value",
          "type": "uint256"
        }
      ],
      "name": "Transfer",
      "type": "event"
    },
    {
      "anonymous": false,
      "inputs": [
        {
          "indexed": true,
          "internalType": "address",
          "name": "to",
          "type": "address"
        },
        {
          "indexed": true,
          "internalType": "uint256",
          "name": "amount",
          "type": "uint256"
        }
      ],
      "name": "Withdrawal",
      "type": "event"
    },
    {
      "inputs": [
        {
          "internalType": "address",
          "name": "owner",
          "type": "address"
        },
        {
          "internalType": "address",
          "name": "spender",
          "type": "address"
        }
      ],
      "name": "allowance",
      "outputs": [
        {
          "internalType": "uint256",
          "name": "",
          "type": "uint256"
        }
      ],
      "stateMutability": "view",
      "type": "function"
    },
    {
      "inputs": [
        {
          "internalType": "address",
          "name": "spender",
          "type": "address"
        },
        {
          "internalType": "uint256",
          "name": "amount",
          "type": "uint256"
        }
      ],
      "name": "approve",
      "outputs": [
        {
          "internalType": "bool",
          "name": "",
          "type": "bool"
        }
      ],
      "stateMutability": "nonpayable",
      "type": "function"
    },
    {
      "inputs": [
        {
          "internalType": "address",
          "name": "account",
          "type": "address"
        }
      ],
      "name": "balanceOf",
      "outputs": [
        {
          "internalType": "uint256",
          "name": "",
          "type": "uint256"
        }
      ],
      "stateMutability": "view",
      "type": "function"
    },
    {
      "inputs": [],
      "name": "blockReward",
      "outputs": [
        {
          "internalType": "uint256",
          "name": "",
          "type": "uint256"
        }
      ],
      "stateMutability": "view",
      "type": "function"
    },
    {
      "inputs": [
        {
          "internalType": "uint256",
          "name": "amount",
          "type": "uint256"
        }
      ],
      "name": "burn",
      "outputs": [],
      "stateMutability": "nonpayable",
      "type": "function"
    },
    {
      "inputs": [
        {
          "internalType": "address",
          "name": "account",
          "type": "address"
        },
        {
          "internalType": "uint256",
          "name": "amount",
          "type": "uint256"
        }
      ],
      "name": "burnFrom",
      "outputs": [],
      "stateMutability": "nonpayable",
      "type": "function"
    },
    {
      "inputs": [],
      "name": "cap",
      "outputs": [
        {
          "internalType": "uint256",
          "name": "",
          "type": "uint256"
        }
      ],
      "stateMutability": "view",
      "type": "function"
    },
    {
      "inputs": [],
      "name": "decimals",
      "outputs": [
        {
          "internalType": "uint8",
          "name": "",
          "type": "uint8"
        }
      ],
      "stateMutability": "view",
      "type": "function"
    },
    {
      "inputs": [
        {
          "internalType": "address",
          "name": "spender",
          "type": "address"
        },
        {
          "internalType": "uint256",
          "name": "subtractedValue",
          "type": "uint256"
        }
      ],
      "name": "decreaseAllowance",
      "outputs": [
        {
          "internalType": "bool",
          "name": "",
          "type": "bool"
        }
      ],
      "stateMutability": "nonpayable",
      "type": "function"
    },
    {
      "inputs": [],
      "name": "destroy",
      "outputs": [],
      "stateMutability": "nonpayable",
      "type": "function"
    },
    {
      "inputs": [],
      "name": "freeFaucetAmount",
      "outputs": [
        {
          "internalType": "uint256",
          "name": "",
          "type": "uint256"
        }
      ],
      "stateMutability": "view",
      "type": "function"
    },
    {
      "inputs": [],
      "name": "getFreeFausetAmount",
      "outputs": [
        {
          "internalType": "uint256",
          "name": "",
          "type": "uint256"
        }
      ],
      "stateMutability": "view",
      "type": "function"
    },
    {
      "inputs": [
        {
          "internalType": "address",
          "name": "account",
          "type": "address"
        }
      ],
      "name": "getFreeTokens",
      "outputs": [],
      "stateMutability": "nonpayable",
      "type": "function"
    },
    {
      "inputs": [
        {
          "internalType": "address",
          "name": "account",
          "type": "address"
        },
        {
          "internalType": "uint256",
          "name": "amount",
          "type": "uint256"
        }
      ],
      "name": "getNewTokens",
      "outputs": [],
      "stateMutability": "payable",
      "type": "function"
    },
    {
      "inputs": [
        {
          "internalType": "address",
          "name": "spender",
          "type": "address"
        },
        {
          "internalType": "uint256",
          "name": "addedValue",
          "type": "uint256"
        }
      ],
      "name": "increaseAllowance",
      "outputs": [
        {
          "internalType": "bool",
          "name": "",
          "type": "bool"
        }
      ],
      "stateMutability": "nonpayable",
      "type": "function"
    },
    {
      "inputs": [],
      "name": "lockTime",
      "outputs": [
        {
          "internalType": "uint256",
          "name": "",
          "type": "uint256"
        }
      ],
      "stateMutability": "view",
      "type": "function"
    },
    {
      "inputs": [],
      "name": "name",
      "outputs": [
        {
          "internalType": "string",
          "name": "",
          "type": "string"
        }
      ],
      "stateMutability": "view",
      "type": "function"
    },
    {
      "inputs": [],
      "name": "owner",
      "outputs": [
        {
          "internalType": "address",
          "name": "",
          "type": "address"
        }
      ],
      "stateMutability": "view",
      "type": "function"
    },
    {
      "inputs": [],
      "name": "renounceOwnership",
      "outputs": [],
      "stateMutability": "nonpayable",
      "type": "function"
    },
    {
      "inputs": [
        {
          "internalType": "uint256",
          "name": "reward",
          "type": "uint256"
        }
      ],
      "name": "setBlockReward",
      "outputs": [],
      "stateMutability": "nonpayable",
      "type": "function"
    },
    {
      "inputs": [
        {
          "internalType": "uint256",
          "name": "amount",
          "type": "uint256"
        }
      ],
      "name": "setFreeFausetAmount",
      "outputs": [],
      "stateMutability": "nonpayable",
      "type": "function"
    },
    {
      "inputs": [
        {
          "internalType": "uint256",
          "name": "amount",
          "type": "uint256"
        }
      ],
      "name": "setLockTime",
      "outputs": [],
      "stateMutability": "nonpayable",
      "type": "function"
    },
    {
      "inputs": [
        {
          "internalType": "uint256",
          "name": "amount",
          "type": "uint256"
        }
      ],
      "name": "setWithdrawalAmount",
      "outputs": [],
      "stateMutability": "nonpayable",
      "type": "function"
    },
    {
      "inputs": [],
      "name": "symbol",
      "outputs": [
        {
          "internalType": "string",
          "name": "",
          "type": "string"
        }
      ],
      "stateMutability": "view",
      "type": "function"
    },
    {
      "inputs": [],
      "name": "totalSupply",
      "outputs": [
        {
          "internalType": "uint256",
          "name": "",
          "type": "uint256"
        }
      ],
      "stateMutability": "view",
      "type": "function"
    },
    {
      "inputs": [
        {
          "internalType": "address",
          "name": "to",
          "type": "address"
        },
        {
          "internalType": "uint256",
          "name": "amount",
          "type": "uint256"
        }
      ],
      "name": "transfer",
      "outputs": [
        {
          "internalType": "bool",
          "name": "",
          "type": "bool"
        }
      ],
      "stateMutability": "nonpayable",
      "type": "function"
    },
    {
      "inputs": [
        {
          "internalType": "address",
          "name": "from",
          "type": "address"
        },
        {
          "internalType": "address",
          "name": "to",
          "type": "address"
        },
        {
          "internalType": "uint256",
          "name": "amount",
          "type": "uint256"
        }
      ],
      "name": "transferFrom",
      "outputs": [
        {
          "internalType": "bool",
          "name": "",
          "type": "bool"
        }
      ],
      "stateMutability": "nonpayable",
      "type": "function"
    },
    {
      "inputs": [
        {
          "internalType": "address",
          "name": "newOwner",
          "type": "address"
        }
      ],
      "name": "transferOwnership",
      "outputs": [],
      "stateMutability": "nonpayable",
      "type": "function"
    },
    {
      "inputs": [],
      "name": "withdraw",
      "outputs": [],
      "stateMutability": "nonpayable",
      "type": "function"
    },
    {
      "inputs": [],
      "name": "withdrawalAmount",
      "outputs": [
        {
          "internalType": "uint256",
          "name": "",
          "type": "uint256"
        }
      ],
      "stateMutability": "view",
      "type": "function"
    }
  ],
  "bytecode": "0x60a0604052610384600855678ac7230489e80000600a553480156200002357600080fd5b506040516200371d3803806200371d833981810160405281019062000049919062000798565b620000596200023560201b60201c565b600a6200006791906200095a565b62989680620000779190620009ab565b6040518060400160405280600881526020017f544654546f6b656e0000000000000000000000000000000000000000000000008152506040518060400160405280600381526020017f54465400000000000000000000000000000000000000000000000000000000008152508160039080519060200190620000fb929190620006a8565b50806004908051906020019062000114929190620006a8565b505050600081116200015d576040517f08c379a0000000000000000000000000000000000000000000000000000000008152600401620001549062000a6d565b60405180910390fd5b806080818152505050620001866200017a6200023e60201b60201c565b6200024660201b60201c565b6000620001986200023560201b60201c565b600a620001a691906200095a565b620186a0620001b69190620009ab565b9050620001c86200023560201b60201c565b600a620001d691906200095a565b6005620001e49190620009ab565b600781905550620001fc33826200030c60201b60201c565b6200020c6200023560201b60201c565b600a6200021a91906200095a565b82620002279190620009ab565b600681905550505062000c63565b60006012905090565b600033905090565b6000600560009054906101000a900473ffffffffffffffffffffffffffffffffffffffff16905081600560006101000a81548173ffffffffffffffffffffffffffffffffffffffff021916908373ffffffffffffffffffffffffffffffffffffffff1602179055508173ffffffffffffffffffffffffffffffffffffffff168173ffffffffffffffffffffffffffffffffffffffff167f8be0079c531659141344cd1fd0a4f28419497f9722a3daafe3b4186f6b6457e060405160405180910390a35050565b6200031c6200039d60201b60201c565b8162000332620003a760201b620007ef1760201c565b6200033e919062000a8f565b111562000382576040517f08c379a0000000000000000000000000000000000000000000000000000000008152600401620003799062000b3c565b60405180910390fd5b620003998282620003b160201b62000ff61760201c565b5050565b6000608051905090565b6000600254905090565b620003c16200039d60201b60201c565b81620003d7620003a760201b620007ef1760201c565b620003e3919062000a8f565b111562000427576040517f08c379a00000000000000000000000000000000000000000000000000000000081526004016200041e9062000b3c565b60405180910390fd5b6200043e82826200044260201b620010601760201c565b5050565b600073ffffffffffffffffffffffffffffffffffffffff168273ffffffffffffffffffffffffffffffffffffffff161415620004b5576040517f08c379a0000000000000000000000000000000000000000000000000000000008152600401620004ac9062000bae565b60405180910390fd5b620004c960008383620005b060201b60201c565b8060026000828254620004dd919062000a8f565b92505081905550806000808473ffffffffffffffffffffffffffffffffffffffff1673ffffffffffffffffffffffffffffffffffffffff168152602001908152602001600020600082825401925050819055508173ffffffffffffffffffffffffffffffffffffffff16600073ffffffffffffffffffffffffffffffffffffffff167fddf252ad1be2c89b69c2b068fc378daa952ba7f163c4a11628f55a4df523b3ef8360405162000590919062000be1565b60405180910390a3620005ac600083836200068860201b60201c565b5050565b600073ffffffffffffffffffffffffffffffffffffffff168373ffffffffffffffffffffffffffffffffffffffff16141580156200061a57504173ffffffffffffffffffffffffffffffffffffffff168273ffffffffffffffffffffffffffffffffffffffff1614155b8015620006545750600073ffffffffffffffffffffffffffffffffffffffff164173ffffffffffffffffffffffffffffffffffffffff1614155b156200066b576200066a6200068d60201b60201c565b5b62000683838383620006a360201b620011b71760201c565b505050565b505050565b620006a1416006546200030c60201b60201c565b565b505050565b828054620006b69062000c2d565b90600052602060002090601f016020900481019282620006da576000855562000726565b82601f10620006f557805160ff191683800117855562000726565b8280016001018555821562000726579182015b828111156200072557825182559160200191906001019062000708565b5b50905062000735919062000739565b5090565b5b80821115620007545760008160009055506001016200073a565b5090565b600080fd5b6000819050919050565b62000772816200075d565b81146200077e57600080fd5b50565b600081519050620007928162000767565b92915050565b600060208284031215620007b157620007b062000758565b5b6000620007c18482850162000781565b91505092915050565b7f4e487b7100000000000000000000000000000000000000000000000000000000600052601160045260246000fd5b60008160011c9050919050565b6000808291508390505b6001851115620008585780860481111562000830576200082f620007ca565b5b6001851615620008405780820291505b80810290506200085085620007f9565b945062000810565b94509492505050565b60008262000873576001905062000946565b8162000883576000905062000946565b81600181146200089c5760028114620008a757620008dd565b600191505062000946565b60ff841115620008bc57620008bb620007ca565b5b8360020a915084821115620008d657620008d5620007ca565b5b5062000946565b5060208310610133831016604e8410600b8410161715620009175782820a905083811115620009115762000910620007ca565b5b62000946565b62000926848484600162000806565b9250905081840481111562000940576200093f620007ca565b5b81810290505b9392505050565b600060ff82169050919050565b600062000967826200075d565b915062000974836200094d565b9250620009a37fffffffffffffffffffffffffffffffffffffffffffffffffffffffffffffffff848462000861565b905092915050565b6000620009b8826200075d565b9150620009c5836200075d565b9250817fffffffffffffffffffffffffffffffffffffffffffffffffffffffffffffffff048311821515161562000a015762000a00620007ca565b5b828202905092915050565b600082825260208201905092915050565b7f45524332304361707065643a2063617020697320300000000000000000000000600082015250565b600062000a5560158362000a0c565b915062000a628262000a1d565b602082019050919050565b6000602082019050818103600083015262000a888162000a46565b9050919050565b600062000a9c826200075d565b915062000aa9836200075d565b9250827fffffffffffffffffffffffffffffffffffffffffffffffffffffffffffffffff0382111562000ae15762000ae0620007ca565b5b828201905092915050565b7f45524332304361707065643a2063617020657863656564656400000000000000600082015250565b600062000b2460198362000a0c565b915062000b318262000aec565b602082019050919050565b6000602082019050818103600083015262000b578162000b15565b9050919050565b7f45524332303a206d696e7420746f20746865207a65726f206164647265737300600082015250565b600062000b96601f8362000a0c565b915062000ba38262000b5e565b602082019050919050565b6000602082019050818103600083015262000bc98162000b87565b9050919050565b62000bdb816200075d565b82525050565b600060208201905062000bf8600083018462000bd0565b92915050565b7f4e487b7100000000000000000000000000000000000000000000000000000000600052602260045260246000fd5b6000600282049050600182168062000c4657607f821691505b6020821081141562000c5d5762000c5c62000bfe565b5b50919050565b608051612a9e62000c7f60003960006108650152612a9e6000f3fe6080604052600436106101cd5760003560e01c806342966c68116100f7578063a457c2d711610095578063dd62ed3e11610064578063dd62ed3e14610645578063ded9796414610682578063e6e268f4146106ab578063f2fde38b146106d6576101cd565b8063a457c2d714610586578063a9059cbb146105c3578063ae04d45d14610600578063ca7bec4314610629576101cd565b806379cc6790116100d157806379cc6790146104f057806383197ef0146105195780638da5cb5b1461053057806395d89b411461055b576101cd565b806342966c681461047357806370a082311461049c578063715018a6146104d9576101cd565b80631a18e7071161016f578063395093511161013e57806339509351146103cb5780633ccfd60b146104085780633d59e5e21461041f578063413fb08e14610448576101cd565b80631a18e7071461030f57806323b872dd14610338578063313ce56714610375578063355274ea146103a0576101cd565b80630ac168a1116101ab5780630ac168a1146102655780630d66808714610290578063168ee33a146102bb57806318160ddd146102e4576101cd565b806303d06ba7146101d257806306fdde03146101fd578063095ea7b314610228575b600080fd5b3480156101de57600080fd5b506101e76106ff565b6040516101f49190611afb565b60405180910390f35b34801561020957600080fd5b50610212610709565b60405161021f9190611baf565b60405180910390f35b34801561023457600080fd5b5061024f600480360381019061024a9190611c60565b61079b565b60405161025c9190611cbb565b60405180910390f35b34801561027157600080fd5b5061027a6107be565b6040516102879190611afb565b60405180910390f35b34801561029c57600080fd5b506102a56107c4565b6040516102b29190611afb565b60405180910390f35b3480156102c757600080fd5b506102e260048036038101906102dd9190611cd6565b6107ca565b005b3480156102f057600080fd5b506102f96107ef565b6040516103069190611afb565b60405180910390f35b34801561031b57600080fd5b5061033660048036038101906103319190611cd6565b6107f9565b005b34801561034457600080fd5b5061035f600480360381019061035a9190611d03565b610829565b60405161036c9190611cbb565b60405180910390f35b34801561038157600080fd5b5061038a610858565b6040516103979190611d72565b60405180910390f35b3480156103ac57600080fd5b506103b5610861565b6040516103c29190611afb565b60405180910390f35b3480156103d757600080fd5b506103f260048036038101906103ed9190611c60565b610889565b6040516103ff9190611cbb565b60405180910390f35b34801561041457600080fd5b5061041d6108c0565b005b34801561042b57600080fd5b5061044660048036038101906104419190611d8d565b61096a565b005b34801561045457600080fd5b5061045d610b80565b60405161046a9190611afb565b60405180910390f35b34801561047f57600080fd5b5061049a60048036038101906104959190611cd6565b610b86565b005b3480156104a857600080fd5b506104c360048036038101906104be9190611d8d565b610b9a565b6040516104d09190611afb565b60405180910390f35b3480156104e557600080fd5b506104ee610be2565b005b3480156104fc57600080fd5b5061051760048036038101906105129190611c60565b610bf6565b005b34801561052557600080fd5b5061052e610c16565b005b34801561053c57600080fd5b50610545610c43565b6040516105529190611dc9565b60405180910390f35b34801561056757600080fd5b50610570610c6d565b60405161057d9190611baf565b60405180910390f35b34801561059257600080fd5b506105ad60048036038101906105a89190611c60565b610cff565b6040516105ba9190611cbb565b60405180910390f35b3480156105cf57600080fd5b506105ea60048036038101906105e59190611c60565b610d76565b6040516105f79190611cbb565b60405180910390f35b34801561060c57600080fd5b5061062760048036038101906106229190611cd6565b610d99565b005b610643600480360381019061063e9190611c60565b610db7565b005b34801561065157600080fd5b5061066c60048036038101906106679190611de4565b610eb5565b6040516106799190611afb565b60405180910390f35b34801561068e57600080fd5b506106a960048036038101906106a49190611cd6565b610f3c565b005b3480156106b757600080fd5b506106c0610f6c565b6040516106cd9190611afb565b60405180910390f35b3480156106e257600080fd5b506106fd60048036038101906106f89190611d8d565b610f72565b005b6000600754905090565b60606003805461071890611e53565b80601f016020809104026020016040519081016040528092919081815260200182805461074490611e53565b80156107915780601f1061076657610100808354040283529160200191610791565b820191906000526020600020905b81548152906001019060200180831161077457829003601f168201915b5050505050905090565b6000806107a66111bc565b90506107b38185856111c4565b600191505092915050565b60065481565b60085481565b6107d261138f565b670de0b6b3a7640000816107e69190611eb4565b600a8190555050565b6000600254905090565b61080161138f565b610809610858565b600a6108159190612041565b816108209190611eb4565b60068190555050565b6000806108346111bc565b905061084185828561140d565b61084c858585611499565b60019150509392505050565b60006012905090565b60007f0000000000000000000000000000000000000000000000000000000000000000905090565b6000806108946111bc565b90506108b58185856108a68589610eb5565b6108b0919061208c565b6111c4565b600191505092915050565b6108c861138f565b6108d130610b9a565b3373ffffffffffffffffffffffffffffffffffffffff167f7fcf532c15f0a6db0bd6d0e038bea71d30d808c7d98cb3bf7268a95bf5081b6560405160405180910390a3600061091e610c43565b90508073ffffffffffffffffffffffffffffffffffffffff166108fc479081150290604051600060405180830381858888f19350505050158015610966573d6000803e3d6000fd5b5050565b600073ffffffffffffffffffffffffffffffffffffffff168173ffffffffffffffffffffffffffffffffffffffff1614156109da576040517f08c379a00000000000000000000000000000000000000000000000000000000081526004016109d19061212e565b60405180910390fd5b600073ffffffffffffffffffffffffffffffffffffffff163373ffffffffffffffffffffffffffffffffffffffff161415610a4a576040517f08c379a0000000000000000000000000000000000000000000000000000000008152600401610a41906121c0565b60405180910390fd5b600a54610a5d610a58610c43565b610b9a565b1015610a9e576040517f08c379a0000000000000000000000000000000000000000000000000000000008152600401610a9590612252565b60405180910390fd5b600960003373ffffffffffffffffffffffffffffffffffffffff1673ffffffffffffffffffffffffffffffffffffffff16815260200190815260200160002054421015610b20576040517f08c379a0000000000000000000000000000000000000000000000000000000008152600401610b179061230a565b60405180910390fd5b60085442610b2e919061208c565b600960003373ffffffffffffffffffffffffffffffffffffffff1673ffffffffffffffffffffffffffffffffffffffff16815260200190815260200160002081905550610b7d81600754611711565b50565b60075481565b610b97610b916111bc565b8261177b565b50565b60008060008373ffffffffffffffffffffffffffffffffffffffff1673ffffffffffffffffffffffffffffffffffffffff168152602001908152602001600020549050919050565b610bea61138f565b610bf46000611949565b565b610c0882610c026111bc565b8361140d565b610c12828261177b565b5050565b610c1e61138f565b6000610c28610c43565b90508073ffffffffffffffffffffffffffffffffffffffff16ff5b6000600560009054906101000a900473ffffffffffffffffffffffffffffffffffffffff16905090565b606060048054610c7c90611e53565b80601f0160208091040260200160405190810160405280929190818152602001828054610ca890611e53565b8015610cf55780601f10610cca57610100808354040283529160200191610cf5565b820191906000526020600020905b815481529060010190602001808311610cd857829003601f168201915b5050505050905090565b600080610d0a6111bc565b90506000610d188286610eb5565b905083811015610d5d576040517f08c379a0000000000000000000000000000000000000000000000000000000008152600401610d549061239c565b60405180910390fd5b610d6a82868684036111c4565b60019250505092915050565b600080610d816111bc565b9050610d8e818585611499565b600191505092915050565b610da161138f565b603c81610dae9190611eb4565b60088190555050565b600073ffffffffffffffffffffffffffffffffffffffff168273ffffffffffffffffffffffffffffffffffffffff161415610e27576040517f08c379a0000000000000000000000000000000000000000000000000000000008152600401610e1e9061212e565b60405180910390fd5b610e2f610858565b600a610e3b9190612041565b6001610e479190611eb4565b341015610e89576040517f08c379a0000000000000000000000000000000000000000000000000000000008152600401610e8090612408565b60405180910390fd5b610eb182610e95610858565b600a610ea19190612041565b83610eac9190611eb4565b611711565b5050565b6000600160008473ffffffffffffffffffffffffffffffffffffffff1673ffffffffffffffffffffffffffffffffffffffff16815260200190815260200160002060008373ffffffffffffffffffffffffffffffffffffffff1673ffffffffffffffffffffffffffffffffffffffff16815260200190815260200160002054905092915050565b610f4461138f565b610f4c610858565b600a610f589190612041565b81610f639190611eb4565b60078190555050565b600a5481565b610f7a61138f565b600073ffffffffffffffffffffffffffffffffffffffff168173ffffffffffffffffffffffffffffffffffffffff161415610fea576040517f08c379a0000000000000000000000000000000000000000000000000000000008152600401610fe19061249a565b60405180910390fd5b610ff381611949565b50565b610ffe610861565b816110076107ef565b611011919061208c565b1115611052576040517f08c379a000000000000000000000000000000000000000000000000000000000815260040161104990612506565b60405180910390fd5b61105c8282611060565b5050565b600073ffffffffffffffffffffffffffffffffffffffff168273ffffffffffffffffffffffffffffffffffffffff1614156110d0576040517f08c379a00000000000000000000000000000000000000000000000000000000081526004016110c790612572565b60405180910390fd5b6110dc60008383611a0f565b80600260008282546110ee919061208c565b92505081905550806000808473ffffffffffffffffffffffffffffffffffffffff1673ffffffffffffffffffffffffffffffffffffffff168152602001908152602001600020600082825401925050819055508173ffffffffffffffffffffffffffffffffffffffff16600073ffffffffffffffffffffffffffffffffffffffff167fddf252ad1be2c89b69c2b068fc378daa952ba7f163c4a11628f55a4df523b3ef8360405161119f9190611afb565b60405180910390a36111b360008383611acf565b5050565b505050565b600033905090565b600073ffffffffffffffffffffffffffffffffffffffff168373ffffffffffffffffffffffffffffffffffffffff161415611234576040517f08c379a000000000000000000000000000000000000000000000000000000000815260040161122b90612604565b60405180910390fd5b600073ffffffffffffffffffffffffffffffffffffffff168273ffffffffffffffffffffffffffffffffffffffff1614156112a4576040517f08c379a000000000000000000000000000000000000000000000000000000000815260040161129b90612696565b60405180910390fd5b80600160008573ffffffffffffffffffffffffffffffffffffffff1673ffffffffffffffffffffffffffffffffffffffff16815260200190815260200160002060008473ffffffffffffffffffffffffffffffffffffffff1673ffffffffffffffffffffffffffffffffffffffff168152602001908152602001600020819055508173ffffffffffffffffffffffffffffffffffffffff168373ffffffffffffffffffffffffffffffffffffffff167f8c5be1e5ebec7d5bd14f71427d1e84f3dd0314c0f7b2291e5b200ac8c7c3b925836040516113829190611afb565b60405180910390a3505050565b6113976111bc565b73ffffffffffffffffffffffffffffffffffffffff166113b5610c43565b73ffffffffffffffffffffffffffffffffffffffff161461140b576040517f08c379a000000000000000000000000000000000000000000000000000000000815260040161140290612702565b60405180910390fd5b565b60006114198484610eb5565b90507fffffffffffffffffffffffffffffffffffffffffffffffffffffffffffffffff81146114935781811015611485576040517f08c379a000000000000000000000000000000000000000000000000000000000815260040161147c9061276e565b60405180910390fd5b61149284848484036111c4565b5b50505050565b600073ffffffffffffffffffffffffffffffffffffffff168373ffffffffffffffffffffffffffffffffffffffff161415611509576040517f08c379a000000000000000000000000000000000000000000000000000000000815260040161150090612800565b60405180910390fd5b600073ffffffffffffffffffffffffffffffffffffffff168273ffffffffffffffffffffffffffffffffffffffff161415611579576040517f08c379a000000000000000000000000000000000000000000000000000000000815260040161157090612892565b60405180910390fd5b611584838383611a0f565b60008060008573ffffffffffffffffffffffffffffffffffffffff1673ffffffffffffffffffffffffffffffffffffffff1681526020019081526020016000205490508181101561160a576040517f08c379a000000000000000000000000000000000000000000000000000000000815260040161160190612924565b60405180910390fd5b8181036000808673ffffffffffffffffffffffffffffffffffffffff1673ffffffffffffffffffffffffffffffffffffffff16815260200190815260200160002081905550816000808573ffffffffffffffffffffffffffffffffffffffff1673ffffffffffffffffffffffffffffffffffffffff168152602001908152602001600020600082825401925050819055508273ffffffffffffffffffffffffffffffffffffffff168473ffffffffffffffffffffffffffffffffffffffff167fddf252ad1be2c89b69c2b068fc378daa952ba7f163c4a11628f55a4df523b3ef846040516116f89190611afb565b60405180910390a361170b848484611acf565b50505050565b611719610861565b816117226107ef565b61172c919061208c565b111561176d576040517f08c379a000000000000000000000000000000000000000000000000000000000815260040161176490612506565b60405180910390fd5b6117778282610ff6565b5050565b600073ffffffffffffffffffffffffffffffffffffffff168273ffffffffffffffffffffffffffffffffffffffff1614156117eb576040517f08c379a00000000000000000000000000000000000000000000000000000000081526004016117e2906129b6565b60405180910390fd5b6117f782600083611a0f565b60008060008473ffffffffffffffffffffffffffffffffffffffff1673ffffffffffffffffffffffffffffffffffffffff1681526020019081526020016000205490508181101561187d576040517f08c379a000000000000000000000000000000000000000000000000000000000815260040161187490612a48565b60405180910390fd5b8181036000808573ffffffffffffffffffffffffffffffffffffffff1673ffffffffffffffffffffffffffffffffffffffff1681526020019081526020016000208190555081600260008282540392505081905550600073ffffffffffffffffffffffffffffffffffffffff168373ffffffffffffffffffffffffffffffffffffffff167fddf252ad1be2c89b69c2b068fc378daa952ba7f163c4a11628f55a4df523b3ef846040516119309190611afb565b60405180910390a361194483600084611acf565b505050565b6000600560009054906101000a900473ffffffffffffffffffffffffffffffffffffffff16905081600560006101000a81548173ffffffffffffffffffffffffffffffffffffffff021916908373ffffffffffffffffffffffffffffffffffffffff1602179055508173ffffffffffffffffffffffffffffffffffffffff168173ffffffffffffffffffffffffffffffffffffffff167f8be0079c531659141344cd1fd0a4f28419497f9722a3daafe3b4186f6b6457e060405160405180910390a35050565b600073ffffffffffffffffffffffffffffffffffffffff168373ffffffffffffffffffffffffffffffffffffffff1614158015611a7857504173ffffffffffffffffffffffffffffffffffffffff168273ffffffffffffffffffffffffffffffffffffffff1614155b8015611ab15750600073ffffffffffffffffffffffffffffffffffffffff164173ffffffffffffffffffffffffffffffffffffffff1614155b15611abf57611abe611ad4565b5b611aca8383836111b7565b505050565b505050565b611ae041600654611711565b565b6000819050919050565b611af581611ae2565b82525050565b6000602082019050611b106000830184611aec565b92915050565b600081519050919050565b600082825260208201905092915050565b60005b83811015611b50578082015181840152602081019050611b35565b83811115611b5f576000848401525b50505050565b6000601f19601f8301169050919050565b6000611b8182611b16565b611b8b8185611b21565b9350611b9b818560208601611b32565b611ba481611b65565b840191505092915050565b60006020820190508181036000830152611bc98184611b76565b905092915050565b600080fd5b600073ffffffffffffffffffffffffffffffffffffffff82169050919050565b6000611c0182611bd6565b9050919050565b611c1181611bf6565b8114611c1c57600080fd5b50565b600081359050611c2e81611c08565b92915050565b611c3d81611ae2565b8114611c4857600080fd5b50565b600081359050611c5a81611c34565b92915050565b60008060408385031215611c7757611c76611bd1565b5b6000611c8585828601611c1f565b9250506020611c9685828601611c4b565b9150509250929050565b60008115159050919050565b611cb581611ca0565b82525050565b6000602082019050611cd06000830184611cac565b92915050565b600060208284031215611cec57611ceb611bd1565b5b6000611cfa84828501611c4b565b91505092915050565b600080600060608486031215611d1c57611d1b611bd1565b5b6000611d2a86828701611c1f565b9350506020611d3b86828701611c1f565b9250506040611d4c86828701611c4b565b9150509250925092565b600060ff82169050919050565b611d6c81611d56565b82525050565b6000602082019050611d876000830184611d63565b92915050565b600060208284031215611da357611da2611bd1565b5b6000611db184828501611c1f565b91505092915050565b611dc381611bf6565b82525050565b6000602082019050611dde6000830184611dba565b92915050565b60008060408385031215611dfb57611dfa611bd1565b5b6000611e0985828601611c1f565b9250506020611e1a85828601611c1f565b9150509250929050565b7f4e487b7100000000000000000000000000000000000000000000000000000000600052602260045260246000fd5b60006002820490506001821680611e6b57607f821691505b60208210811415611e7f57611e7e611e24565b5b50919050565b7f4e487b7100000000000000000000000000000000000000000000000000000000600052601160045260246000fd5b6000611ebf82611ae2565b9150611eca83611ae2565b9250817fffffffffffffffffffffffffffffffffffffffffffffffffffffffffffffffff0483118215151615611f0357611f02611e85565b5b828202905092915050565b60008160011c9050919050565b6000808291508390505b6001851115611f6557808604811115611f4157611f40611e85565b5b6001851615611f505780820291505b8081029050611f5e85611f0e565b9450611f25565b94509492505050565b600082611f7e576001905061203a565b81611f8c576000905061203a565b8160018114611fa25760028114611fac57611fdb565b600191505061203a565b60ff841115611fbe57611fbd611e85565b5b8360020a915084821115611fd557611fd4611e85565b5b5061203a565b5060208310610133831016604e8410600b84101617156120105782820a90508381111561200b5761200a611e85565b5b61203a565b61201d8484846001611f1b565b9250905081840481111561203457612033611e85565b5b81810290505b9392505050565b600061204c82611ae2565b915061205783611d56565b92506120847fffffffffffffffffffffffffffffffffffffffffffffffffffffffffffffffff8484611f6e565b905092915050565b600061209782611ae2565b91506120a283611ae2565b9250827fffffffffffffffffffffffffffffffffffffffffffffffffffffffffffffffff038211156120d7576120d6611e85565b5b828201905092915050565b7f4163636f756e74206973206e6f742076616c6964000000000000000000000000600082015250565b6000612118601483611b21565b9150612123826120e2565b602082019050919050565b600060208201905081810360008301526121478161210b565b9050919050565b7f52657175657374206d757374206e6f74206f726967696e6174652066726f6d2060008201527f61207a65726f206163636f756e74000000000000000000000000000000000000602082015250565b60006121aa602e83611b21565b91506121b58261214e565b604082019050919050565b600060208201905081810360008301526121d98161219d565b9050919050565b7f496e73756666696369656e742062616c616e636520696e20666175636574206660008201527f6f72207769746864726177616c20726571756573740000000000000000000000602082015250565b600061223c603583611b21565b9150612247826121e0565b604082019050919050565b6000602082019050818103600083015261226b8161222f565b9050919050565b7f496e73756666696369656e742074696d6520656c61707365642073696e63652060008201527f6c617374207769746864726177616c202d2074727920616761696e206c61746560208201527f722e000000000000000000000000000000000000000000000000000000000000604082015250565b60006122f4604283611b21565b91506122ff82612272565b606082019050919050565b60006020820190508181036000830152612323816122e7565b9050919050565b7f45524332303a2064656372656173656420616c6c6f77616e63652062656c6f7760008201527f207a65726f000000000000000000000000000000000000000000000000000000602082015250565b6000612386602583611b21565b91506123918261232a565b604082019050919050565b600060208201905081810360008301526123b581612379565b9050919050565b7f416464205472616e73656374696f6e2056616c75650000000000000000000000600082015250565b60006123f2601583611b21565b91506123fd826123bc565b602082019050919050565b60006020820190508181036000830152612421816123e5565b9050919050565b7f4f776e61626c653a206e6577206f776e657220697320746865207a65726f206160008201527f6464726573730000000000000000000000000000000000000000000000000000602082015250565b6000612484602683611b21565b915061248f82612428565b604082019050919050565b600060208201905081810360008301526124b381612477565b9050919050565b7f45524332304361707065643a2063617020657863656564656400000000000000600082015250565b60006124f0601983611b21565b91506124fb826124ba565b602082019050919050565b6000602082019050818103600083015261251f816124e3565b9050919050565b7f45524332303a206d696e7420746f20746865207a65726f206164647265737300600082015250565b600061255c601f83611b21565b915061256782612526565b602082019050919050565b6000602082019050818103600083015261258b8161254f565b9050919050565b7f45524332303a20617070726f76652066726f6d20746865207a65726f2061646460008201527f7265737300000000000000000000000000000000000000000000000000000000602082015250565b60006125ee602483611b21565b91506125f982612592565b604082019050919050565b6000602082019050818103600083015261261d816125e1565b9050919050565b7f45524332303a20617070726f766520746f20746865207a65726f20616464726560008201527f7373000000000000000000000000000000000000000000000000000000000000602082015250565b6000612680602283611b21565b915061268b82612624565b604082019050919050565b600060208201905081810360008301526126af81612673565b9050919050565b7f4f776e61626c653a2063616c6c6572206973206e6f7420746865206f776e6572600082015250565b60006126ec602083611b21565b91506126f7826126b6565b602082019050919050565b6000602082019050818103600083015261271b816126df565b9050919050565b7f45524332303a20696e73756666696369656e7420616c6c6f77616e6365000000600082015250565b6000612758601d83611b21565b915061276382612722565b602082019050919050565b600060208201905081810360008301526127878161274b565b9050919050565b7f45524332303a207472616e736665722066726f6d20746865207a65726f20616460008201527f6472657373000000000000000000000000000000000000000000000000000000602082015250565b60006127ea602583611b21565b91506127f58261278e565b604082019050919050565b60006020820190508181036000830152612819816127dd565b9050919050565b7f45524332303a207472616e7366657220746f20746865207a65726f206164647260008201527f6573730000000000000000000000000000000000000000000000000000000000602082015250565b600061287c602383611b21565b915061288782612820565b604082019050919050565b600060208201905081810360008301526128ab8161286f565b9050919050565b7f45524332303a207472616e7366657220616d6f756e742065786365656473206260008201527f616c616e63650000000000000000000000000000000000000000000000000000602082015250565b600061290e602683611b21565b9150612919826128b2565b604082019050919050565b6000602082019050818103600083015261293d81612901565b9050919050565b7f45524332303a206275726e2066726f6d20746865207a65726f2061646472657360008201527f7300000000000000000000000000000000000000000000000000000000000000602082015250565b60006129a0602183611b21565b91506129ab82612944565b604082019050919050565b600060208201905081810360008301526129cf81612993565b9050919050565b7f45524332303a206275726e20616d6f756e7420657863656564732062616c616e60008201527f6365000000000000000000000000000000000000000000000000000000000000602082015250565b6000612a32602283611b21565b9150612a3d826129d6565b604082019050919050565b60006020820190508181036000830152612a6181612a25565b905091905056fea2646970667358221220217b695053467339eb527c9ce6164771b445879ec9e1132ca7b68f25bc38092864736f6c63430008090033",
  "linkReferences": {},
  "deployedLinkReferences": {}
}