{
  "_format": "hh-sol-artifact-1",
  "contractName": "ReactNFT",
  "sourceName": "contracts/ReactNFT.sol",
  "abi": [
    {
      "inputs": [
        {
          "internalType": "uint256",
          "name": "_mintFee",
          "type": "uint256"
        }
      ],
      "stateMutability": "nonpayable",
      "type": "constructor"
    },
    {
      "inputs": [],
      "name": "ReactNFT__NeedMoreEth",
      "type": "error"
    },
    {
      "inputs": [],
      "name": "ReactNFT__TransferFailed",
      "type": "error"
    },
    {
      "anonymous": false,
      "inputs": [
        {
          "indexed": true,
          "internalType": "address",
          "name": "owner",
          "type": "address"
        },
        {
          "indexed": true,
          "internalType": "address",
          "name": "approved",
          "type": "address"
        },
        {
          "indexed": true,
          "internalType": "uint256",
          "name": "tokenId",
          "type": "uint256"
        }
      ],
      "name": "Approval",
      "type": "event"
    },
    {
      "anonymous": false,
      "inputs": [
        {
          "indexed": true,
          "internalType": "address",
          "name": "owner",
          "type": "address"
        },
        {
          "indexed": true,
          "internalType": "address",
          "name": "operator",
          "type": "address"
        },
        {
          "indexed": false,
          "internalType": "bool",
          "name": "approved",
          "type": "bool"
        }
      ],
      "name": "ApprovalForAll",
      "type": "event"
    },
    {
      "anonymous": false,
      "inputs": [
        {
          "indexed": true,
          "internalType": "uint256",
          "name": "tokenId",
          "type": "uint256"
        },
        {
          "indexed": false,
          "internalType": "address",
          "name": "minter",
          "type": "address"
        }
      ],
      "name": "NFTMinted",
      "type": "event"
    },
    {
      "anonymous": false,
      "inputs": [
        {
          "indexed": true,
          "internalType": "address",
          "name": "previousOwner",
          "type": "address"
        },
        {
          "indexed": true,
          "internalType": "address",
          "name": "newOwner",
          "type": "address"
        }
      ],
      "name": "OwnershipTransferred",
      "type": "event"
    },
    {
      "anonymous": false,
      "inputs": [
        {
          "indexed": true,
          "internalType": "address",
          "name": "from",
          "type": "address"
        },
        {
          "indexed": true,
          "internalType": "address",
          "name": "to",
          "type": "address"
        },
        {
          "indexed": true,
          "internalType": "uint256",
          "name": "tokenId",
          "type": "uint256"
        }
      ],
      "name": "Transfer",
      "type": "event"
    },
    {
      "inputs": [
        {
          "internalType": "address",
          "name": "to",
          "type": "address"
        },
        {
          "internalType": "uint256",
          "name": "tokenId",
          "type": "uint256"
        }
      ],
      "name": "approve",
      "outputs": [],
      "stateMutability": "nonpayable",
      "type": "function"
    },
    {
      "inputs": [
        {
          "internalType": "address",
          "name": "owner",
          "type": "address"
        }
      ],
      "name": "balanceOf",
      "outputs": [
        {
          "internalType": "uint256",
          "name": "",
          "type": "uint256"
        }
      ],
      "stateMutability": "view",
      "type": "function"
    },
    {
      "inputs": [
        {
          "internalType": "string",
          "name": "_tokenURI",
          "type": "string"
        }
      ],
      "name": "createNFT",
      "outputs": [],
      "stateMutability": "payable",
      "type": "function"
    },
    {
      "inputs": [
        {
          "internalType": "uint256",
          "name": "tokenId",
          "type": "uint256"
        }
      ],
      "name": "getApproved",
      "outputs": [
        {
          "internalType": "address",
          "name": "",
          "type": "address"
        }
      ],
      "stateMutability": "view",
      "type": "function"
    },
    {
      "inputs": [],
      "name": "getMintFee",
      "outputs": [
        {
          "internalType": "uint256",
          "name": "",
          "type": "uint256"
        }
      ],
      "stateMutability": "view",
      "type": "function"
    },
    {
      "inputs": [],
      "name": "getTokenID",
      "outputs": [
        {
          "internalType": "uint256",
          "name": "",
          "type": "uint256"
        }
      ],
      "stateMutability": "view",
      "type": "function"
    },
    {
      "inputs": [
        {
          "internalType": "address",
          "name": "owner",
          "type": "address"
        },
        {
          "internalType": "address",
          "name": "operator",
          "type": "address"
        }
      ],
      "name": "isApprovedForAll",
      "outputs": [
        {
          "internalType": "bool",
          "name": "",
          "type": "bool"
        }
      ],
      "stateMutability": "view",
      "type": "function"
    },
    {
      "inputs": [],
      "name": "name",
      "outputs": [
        {
          "internalType": "string",
          "name": "",
          "type": "string"
        }
      ],
      "stateMutability": "view",
      "type": "function"
    },
    {
      "inputs": [],
      "name": "owner",
      "outputs": [
        {
          "internalType": "address",
          "name": "",
          "type": "address"
        }
      ],
      "stateMutability": "view",
      "type": "function"
    },
    {
      "inputs": [
        {
          "internalType": "uint256",
          "name": "tokenId",
          "type": "uint256"
        }
      ],
      "name": "ownerOf",
      "outputs": [
        {
          "internalType": "address",
          "name": "",
          "type": "address"
        }
      ],
      "stateMutability": "view",
      "type": "function"
    },
    {
      "inputs": [],
      "name": "renounceOwnership",
      "outputs": [],
      "stateMutability": "nonpayable",
      "type": "function"
    },
    {
      "inputs": [
        {
          "internalType": "address",
          "name": "from",
          "type": "address"
        },
        {
          "internalType": "address",
          "name": "to",
          "type": "address"
        },
        {
          "internalType": "uint256",
          "name": "tokenId",
          "type": "uint256"
        }
      ],
      "name": "safeTransferFrom",
      "outputs": [],
      "stateMutability": "nonpayable",
      "type": "function"
    },
    {
      "inputs": [
        {
          "internalType": "address",
          "name": "from",
          "type": "address"
        },
        {
          "internalType": "address",
          "name": "to",
          "type": "address"
        },
        {
          "internalType": "uint256",
          "name": "tokenId",
          "type": "uint256"
        },
        {
          "internalType": "bytes",
          "name": "data",
          "type": "bytes"
        }
      ],
      "name": "safeTransferFrom",
      "outputs": [],
      "stateMutability": "nonpayable",
      "type": "function"
    },
    {
      "inputs": [
        {
          "internalType": "address",
          "name": "operator",
          "type": "address"
        },
        {
          "internalType": "bool",
          "name": "approved",
          "type": "bool"
        }
      ],
      "name": "setApprovalForAll",
      "outputs": [],
      "stateMutability": "nonpayable",
      "type": "function"
    },
    {
      "inputs": [
        {
          "internalType": "bytes4",
          "name": "interfaceId",
          "type": "bytes4"
        }
      ],
      "name": "supportsInterface",
      "outputs": [
        {
          "internalType": "bool",
          "name": "",
          "type": "bool"
        }
      ],
      "stateMutability": "view",
      "type": "function"
    },
    {
      "inputs": [],
      "name": "symbol",
      "outputs": [
        {
          "internalType": "string",
          "name": "",
          "type": "string"
        }
      ],
      "stateMutability": "view",
      "type": "function"
    },
    {
      "inputs": [
        {
          "internalType": "uint256",
          "name": "tokenId",
          "type": "uint256"
        }
      ],
      "name": "tokenURI",
      "outputs": [
        {
          "internalType": "string",
          "name": "",
          "type": "string"
        }
      ],
      "stateMutability": "view",
      "type": "function"
    },
    {
      "inputs": [
        {
          "internalType": "address",
          "name": "from",
          "type": "address"
        },
        {
          "internalType": "address",
          "name": "to",
          "type": "address"
        },
        {
          "internalType": "uint256",
          "name": "tokenId",
          "type": "uint256"
        }
      ],
      "name": "transferFrom",
      "outputs": [],
      "stateMutability": "nonpayable",
      "type": "function"
    },
    {
      "inputs": [
        {
          "internalType": "address",
          "name": "newOwner",
          "type": "address"
        }
      ],
      "name": "transferOwnership",
      "outputs": [],
      "stateMutability": "nonpayable",
      "type": "function"
    },
    {
      "inputs": [],
      "name": "withdraw",
      "outputs": [],
      "stateMutability": "nonpayable",
      "type": "function"
    }
  ],
  "bytecode": "0x60a06040523480156200001157600080fd5b5060405162003543380380620035438339818101604052810190620000379190620002e1565b6040518060400160405280600781526020017f497066734e6674000000000000000000000000000000000000000000000000008152506040518060400160405280600781526020017f497066734e6674000000000000000000000000000000000000000000000000008152508160009080519060200190620000bb929190620001f1565b508060019080519060200190620000d4929190620001f1565b505050620000f7620000eb6200012360201b60201c565b6200012b60201b60201c565b670de0b6b3a7640000816200010d919062000342565b6080818152505060006008819055505062000408565b600033905090565b6000600760009054906101000a900473ffffffffffffffffffffffffffffffffffffffff16905081600760006101000a81548173ffffffffffffffffffffffffffffffffffffffff021916908373ffffffffffffffffffffffffffffffffffffffff1602179055508173ffffffffffffffffffffffffffffffffffffffff168173ffffffffffffffffffffffffffffffffffffffff167f8be0079c531659141344cd1fd0a4f28419497f9722a3daafe3b4186f6b6457e060405160405180910390a35050565b828054620001ff90620003d2565b90600052602060002090601f0160209004810192826200022357600085556200026f565b82601f106200023e57805160ff19168380011785556200026f565b828001600101855582156200026f579182015b828111156200026e57825182559160200191906001019062000251565b5b5090506200027e919062000282565b5090565b5b808211156200029d57600081600090555060010162000283565b5090565b600080fd5b6000819050919050565b620002bb81620002a6565b8114620002c757600080fd5b50565b600081519050620002db81620002b0565b92915050565b600060208284031215620002fa57620002f9620002a1565b5b60006200030a84828501620002ca565b91505092915050565b7f4e487b7100000000000000000000000000000000000000000000000000000000600052601160045260246000fd5b60006200034f82620002a6565b91506200035c83620002a6565b9250817fffffffffffffffffffffffffffffffffffffffffffffffffffffffffffffffff048311821515161562000398576200039762000313565b5b828202905092915050565b7f4e487b7100000000000000000000000000000000000000000000000000000000600052602260045260246000fd5b60006002820490506001821680620003eb57607f821691505b60208210811415620004025762000401620003a3565b5b50919050565b6080516131186200042b60003960008181610a100152610c7d01526131186000f3fe60806040526004361061011f5760003560e01c8063715018a6116100a0578063b88d4fde11610064578063b88d4fde146103c1578063c87b56dd146103ea578063da2ed03e14610427578063e985e9c514610443578063f2fde38b146104805761011f565b8063715018a6146103005780637a5caab3146103175780638da5cb5b1461034257806395d89b411461036d578063a22cb465146103985761011f565b80633ccfd60b116100e75780633ccfd60b1461021b57806342842e0e146102325780636352211e1461025b5780636ba367a31461029857806370a08231146102c35761011f565b806301ffc9a71461012457806306fdde0314610161578063081812fc1461018c578063095ea7b3146101c957806323b872dd146101f2575b600080fd5b34801561013057600080fd5b5061014b60048036038101906101469190612091565b6104a9565b60405161015891906120d9565b60405180910390f35b34801561016d57600080fd5b5061017661058b565b604051610183919061218d565b60405180910390f35b34801561019857600080fd5b506101b360048036038101906101ae91906121e5565b61061d565b6040516101c09190612253565b60405180910390f35b3480156101d557600080fd5b506101f060048036038101906101eb919061229a565b610663565b005b3480156101fe57600080fd5b50610219600480360381019061021491906122da565b61077b565b005b34801561022757600080fd5b506102306107db565b005b34801561023e57600080fd5b50610259600480360381019061025491906122da565b61088f565b005b34801561026757600080fd5b50610282600480360381019061027d91906121e5565b6108af565b60405161028f9190612253565b60405180910390f35b3480156102a457600080fd5b506102ad610936565b6040516102ba919061233c565b60405180910390f35b3480156102cf57600080fd5b506102ea60048036038101906102e59190612357565b610940565b6040516102f7919061233c565b60405180910390f35b34801561030c57600080fd5b506103156109f8565b005b34801561032357600080fd5b5061032c610a0c565b604051610339919061233c565b60405180910390f35b34801561034e57600080fd5b50610357610a34565b6040516103649190612253565b60405180910390f35b34801561037957600080fd5b50610382610a5e565b60405161038f919061218d565b60405180910390f35b3480156103a457600080fd5b506103bf60048036038101906103ba91906123b0565b610af0565b005b3480156103cd57600080fd5b506103e860048036038101906103e39190612525565b610b06565b005b3480156103f657600080fd5b50610411600480360381019061040c91906121e5565b610b68565b60405161041e919061218d565b60405180910390f35b610441600480360381019061043c9190612649565b610c7b565b005b34801561044f57600080fd5b5061046a60048036038101906104659190612692565b610d3f565b60405161047791906120d9565b60405180910390f35b34801561048c57600080fd5b506104a760048036038101906104a29190612357565b610dd3565b005b60007f80ac58cd000000000000000000000000000000000000000000000000000000007bffffffffffffffffffffffffffffffffffffffffffffffffffffffff1916827bffffffffffffffffffffffffffffffffffffffffffffffffffffffff1916148061057457507f5b5e139f000000000000000000000000000000000000000000000000000000007bffffffffffffffffffffffffffffffffffffffffffffffffffffffff1916827bffffffffffffffffffffffffffffffffffffffffffffffffffffffff1916145b80610584575061058382610e57565b5b9050919050565b60606000805461059a90612701565b80601f01602080910402602001604051908101604052809291908181526020018280546105c690612701565b80156106135780601f106105e857610100808354040283529160200191610613565b820191906000526020600020905b8154815290600101906020018083116105f657829003601f168201915b5050505050905090565b600061062882610ec1565b6004600083815260200190815260200160002060009054906101000a900473ffffffffffffffffffffffffffffffffffffffff169050919050565b600061066e826108af565b90508073ffffffffffffffffffffffffffffffffffffffff168373ffffffffffffffffffffffffffffffffffffffff1614156106df576040517f08c379a00000000000000000000000000000000000000000000000000000000081526004016106d6906127a5565b60405180910390fd5b8073ffffffffffffffffffffffffffffffffffffffff166106fe610f0c565b73ffffffffffffffffffffffffffffffffffffffff16148061072d575061072c81610727610f0c565b610d3f565b5b61076c576040517f08c379a000000000000000000000000000000000000000000000000000000000815260040161076390612837565b60405180910390fd5b6107768383610f14565b505050565b61078c610786610f0c565b82610fcd565b6107cb576040517f08c379a00000000000000000000000000000000000000000000000000000000081526004016107c2906128c9565b60405180910390fd5b6107d6838383611062565b505050565b6107e361135c565b600047905060003373ffffffffffffffffffffffffffffffffffffffff168260405161080e9061291a565b60006040518083038185875af1925050503d806000811461084b576040519150601f19603f3d011682016040523d82523d6000602084013e610850565b606091505b505090508061088b576040517f1bd030f500000000000000000000000000000000000000000000000000000000815260040160405180910390fd5b5050565b6108aa83838360405180602001604052806000815250610b06565b505050565b6000806108bb836113da565b9050600073ffffffffffffffffffffffffffffffffffffffff168173ffffffffffffffffffffffffffffffffffffffff16141561092d576040517f08c379a00000000000000000000000000000000000000000000000000000000081526004016109249061297b565b60405180910390fd5b80915050919050565b6000600854905090565b60008073ffffffffffffffffffffffffffffffffffffffff168273ffffffffffffffffffffffffffffffffffffffff1614156109b1576040517f08c379a00000000000000000000000000000000000000000000000000000000081526004016109a890612a0d565b60405180910390fd5b600360008373ffffffffffffffffffffffffffffffffffffffff1673ffffffffffffffffffffffffffffffffffffffff168152602001908152602001600020549050919050565b610a0061135c565b610a0a6000611417565b565b60007f0000000000000000000000000000000000000000000000000000000000000000905090565b6000600760009054906101000a900473ffffffffffffffffffffffffffffffffffffffff16905090565b606060018054610a6d90612701565b80601f0160208091040260200160405190810160405280929190818152602001828054610a9990612701565b8015610ae65780601f10610abb57610100808354040283529160200191610ae6565b820191906000526020600020905b815481529060010190602001808311610ac957829003601f168201915b5050505050905090565b610b02610afb610f0c565b83836114dd565b5050565b610b17610b11610f0c565b83610fcd565b610b56576040517f08c379a0000000000000000000000000000000000000000000000000000000008152600401610b4d906128c9565b60405180910390fd5b610b628484848461164a565b50505050565b6060610b7382610ec1565b6000600660008481526020019081526020016000208054610b9390612701565b80601f0160208091040260200160405190810160405280929190818152602001828054610bbf90612701565b8015610c0c5780601f10610be157610100808354040283529160200191610c0c565b820191906000526020600020905b815481529060010190602001808311610bef57829003601f168201915b505050505090506000610c1d6116a6565b9050600081511415610c33578192505050610c76565b600082511115610c68578082604051602001610c50929190612a69565b60405160208183030381529060405292505050610c76565b610c71846116bd565b925050505b919050565b7f0000000000000000000000000000000000000000000000000000000000000000341015610cd5576040517ffb9492be00000000000000000000000000000000000000000000000000000000815260040160405180910390fd5b610ce133600854611725565b610ced60085482611743565b6001600854610cfc9190612abc565b6008819055506008547f0176f203df400d7bd5f1b1c9ef36c16709bf3b5d9fd35f000a6bae32393f66c333604051610d349190612253565b60405180910390a250565b6000600560008473ffffffffffffffffffffffffffffffffffffffff1673ffffffffffffffffffffffffffffffffffffffff16815260200190815260200160002060008373ffffffffffffffffffffffffffffffffffffffff1673ffffffffffffffffffffffffffffffffffffffff16815260200190815260200160002060009054906101000a900460ff16905092915050565b610ddb61135c565b600073ffffffffffffffffffffffffffffffffffffffff168173ffffffffffffffffffffffffffffffffffffffff161415610e4b576040517f08c379a0000000000000000000000000000000000000000000000000000000008152600401610e4290612b84565b60405180910390fd5b610e5481611417565b50565b60007f01ffc9a7000000000000000000000000000000000000000000000000000000007bffffffffffffffffffffffffffffffffffffffffffffffffffffffff1916827bffffffffffffffffffffffffffffffffffffffffffffffffffffffff1916149050919050565b610eca816117b7565b610f09576040517f08c379a0000000000000000000000000000000000000000000000000000000008152600401610f009061297b565b60405180910390fd5b50565b600033905090565b816004600083815260200190815260200160002060006101000a81548173ffffffffffffffffffffffffffffffffffffffff021916908373ffffffffffffffffffffffffffffffffffffffff160217905550808273ffffffffffffffffffffffffffffffffffffffff16610f87836108af565b73ffffffffffffffffffffffffffffffffffffffff167f8c5be1e5ebec7d5bd14f71427d1e84f3dd0314c0f7b2291e5b200ac8c7c3b92560405160405180910390a45050565b600080610fd9836108af565b90508073ffffffffffffffffffffffffffffffffffffffff168473ffffffffffffffffffffffffffffffffffffffff16148061101b575061101a8185610d3f565b5b8061105957508373ffffffffffffffffffffffffffffffffffffffff166110418461061d565b73ffffffffffffffffffffffffffffffffffffffff16145b91505092915050565b8273ffffffffffffffffffffffffffffffffffffffff16611082826108af565b73ffffffffffffffffffffffffffffffffffffffff16146110d8576040517f08c379a00000000000000000000000000000000000000000000000000000000081526004016110cf90612c16565b60405180910390fd5b600073ffffffffffffffffffffffffffffffffffffffff168273ffffffffffffffffffffffffffffffffffffffff161415611148576040517f08c379a000000000000000000000000000000000000000000000000000000000815260040161113f90612ca8565b60405180910390fd5b61115583838360016117f8565b8273ffffffffffffffffffffffffffffffffffffffff16611175826108af565b73ffffffffffffffffffffffffffffffffffffffff16146111cb576040517f08c379a00000000000000000000000000000000000000000000000000000000081526004016111c290612c16565b60405180910390fd5b6004600082815260200190815260200160002060006101000a81549073ffffffffffffffffffffffffffffffffffffffff02191690556001600360008573ffffffffffffffffffffffffffffffffffffffff1673ffffffffffffffffffffffffffffffffffffffff168152602001908152602001600020600082825403925050819055506001600360008473ffffffffffffffffffffffffffffffffffffffff1673ffffffffffffffffffffffffffffffffffffffff16815260200190815260200160002060008282540192505081905550816002600083815260200190815260200160002060006101000a81548173ffffffffffffffffffffffffffffffffffffffff021916908373ffffffffffffffffffffffffffffffffffffffff160217905550808273ffffffffffffffffffffffffffffffffffffffff168473ffffffffffffffffffffffffffffffffffffffff167fddf252ad1be2c89b69c2b068fc378daa952ba7f163c4a11628f55a4df523b3ef60405160405180910390a4611357838383600161191e565b505050565b611364610f0c565b73ffffffffffffffffffffffffffffffffffffffff16611382610a34565b73ffffffffffffffffffffffffffffffffffffffff16146113d8576040517f08c379a00000000000000000000000000000000000000000000000000000000081526004016113cf90612d14565b60405180910390fd5b565b60006002600083815260200190815260200160002060009054906101000a900473ffffffffffffffffffffffffffffffffffffffff169050919050565b6000600760009054906101000a900473ffffffffffffffffffffffffffffffffffffffff16905081600760006101000a81548173ffffffffffffffffffffffffffffffffffffffff021916908373ffffffffffffffffffffffffffffffffffffffff1602179055508173ffffffffffffffffffffffffffffffffffffffff168173ffffffffffffffffffffffffffffffffffffffff167f8be0079c531659141344cd1fd0a4f28419497f9722a3daafe3b4186f6b6457e060405160405180910390a35050565b8173ffffffffffffffffffffffffffffffffffffffff168373ffffffffffffffffffffffffffffffffffffffff16141561154c576040517f08c379a000000000000000000000000000000000000000000000000000000000815260040161154390612d80565b60405180910390fd5b80600560008573ffffffffffffffffffffffffffffffffffffffff1673ffffffffffffffffffffffffffffffffffffffff16815260200190815260200160002060008473ffffffffffffffffffffffffffffffffffffffff1673ffffffffffffffffffffffffffffffffffffffff16815260200190815260200160002060006101000a81548160ff0219169083151502179055508173ffffffffffffffffffffffffffffffffffffffff168373ffffffffffffffffffffffffffffffffffffffff167f17307eab39ab6107e8899845ad3d59bd9653f200f220920489ca2b5937696c318360405161163d91906120d9565b60405180910390a3505050565b611655848484611062565b61166184848484611924565b6116a0576040517f08c379a000000000000000000000000000000000000000000000000000000000815260040161169790612e12565b60405180910390fd5b50505050565b606060405180602001604052806000815250905090565b60606116c882610ec1565b60006116d26116a6565b905060008151116116f2576040518060200160405280600081525061171d565b806116fc84611abb565b60405160200161170d929190612a69565b6040516020818303038152906040525b915050919050565b61173f828260405180602001604052806000815250611b93565b5050565b61174c826117b7565b61178b576040517f08c379a000000000000000000000000000000000000000000000000000000000815260040161178290612ea4565b60405180910390fd5b806006600084815260200190815260200160002090805190602001906117b2929190611f82565b505050565b60008073ffffffffffffffffffffffffffffffffffffffff166117d9836113da565b73ffffffffffffffffffffffffffffffffffffffff1614159050919050565b600181111561191857600073ffffffffffffffffffffffffffffffffffffffff168473ffffffffffffffffffffffffffffffffffffffff161461188c5780600360008673ffffffffffffffffffffffffffffffffffffffff1673ffffffffffffffffffffffffffffffffffffffff16815260200190815260200160002060008282546118849190612ec4565b925050819055505b600073ffffffffffffffffffffffffffffffffffffffff168373ffffffffffffffffffffffffffffffffffffffff16146119175780600360008573ffffffffffffffffffffffffffffffffffffffff1673ffffffffffffffffffffffffffffffffffffffff168152602001908152602001600020600082825461190f9190612abc565b925050819055505b5b50505050565b50505050565b60006119458473ffffffffffffffffffffffffffffffffffffffff16611bee565b15611aae578373ffffffffffffffffffffffffffffffffffffffff1663150b7a0261196e610f0c565b8786866040518563ffffffff1660e01b81526004016119909493929190612f4d565b602060405180830381600087803b1580156119aa57600080fd5b505af19250505080156119db57506040513d601f19601f820116820180604052508101906119d89190612fae565b60015b611a5e573d8060008114611a0b576040519150601f19603f3d011682016040523d82523d6000602084013e611a10565b606091505b50600081511415611a56576040517f08c379a0000000000000000000000000000000000000000000000000000000008152600401611a4d90612e12565b60405180910390fd5b805181602001fd5b63150b7a0260e01b7bffffffffffffffffffffffffffffffffffffffffffffffffffffffff1916817bffffffffffffffffffffffffffffffffffffffffffffffffffffffff191614915050611ab3565b600190505b949350505050565b606060006001611aca84611c11565b01905060008167ffffffffffffffff811115611ae957611ae86123fa565b5b6040519080825280601f01601f191660200182016040528015611b1b5781602001600182028036833780820191505090505b509050600082602001820190505b600115611b88578080600190039150507f3031323334353637383961626364656600000000000000000000000000000000600a86061a8153600a8581611b7257611b71612fdb565b5b0494506000851415611b8357611b88565b611b29565b819350505050919050565b611b9d8383611d64565b611baa6000848484611924565b611be9576040517f08c379a0000000000000000000000000000000000000000000000000000000008152600401611be090612e12565b60405180910390fd5b505050565b6000808273ffffffffffffffffffffffffffffffffffffffff163b119050919050565b600080600090507a184f03e93ff9f4daa797ed6e38ed64bf6a1f0100000000000000008310611c6f577a184f03e93ff9f4daa797ed6e38ed64bf6a1f0100000000000000008381611c6557611c64612fdb565b5b0492506040810190505b6d04ee2d6d415b85acef81000000008310611cac576d04ee2d6d415b85acef81000000008381611ca257611ca1612fdb565b5b0492506020810190505b662386f26fc100008310611cdb57662386f26fc100008381611cd157611cd0612fdb565b5b0492506010810190505b6305f5e1008310611d04576305f5e1008381611cfa57611cf9612fdb565b5b0492506008810190505b6127108310611d29576127108381611d1f57611d1e612fdb565b5b0492506004810190505b60648310611d4c5760648381611d4257611d41612fdb565b5b0492506002810190505b600a8310611d5b576001810190505b80915050919050565b600073ffffffffffffffffffffffffffffffffffffffff168273ffffffffffffffffffffffffffffffffffffffff161415611dd4576040517f08c379a0000000000000000000000000000000000000000000000000000000008152600401611dcb90613056565b60405180910390fd5b611ddd816117b7565b15611e1d576040517f08c379a0000000000000000000000000000000000000000000000000000000008152600401611e14906130c2565b60405180910390fd5b611e2b6000838360016117f8565b611e34816117b7565b15611e74576040517f08c379a0000000000000000000000000000000000000000000000000000000008152600401611e6b906130c2565b60405180910390fd5b6001600360008473ffffffffffffffffffffffffffffffffffffffff1673ffffffffffffffffffffffffffffffffffffffff16815260200190815260200160002060008282540192505081905550816002600083815260200190815260200160002060006101000a81548173ffffffffffffffffffffffffffffffffffffffff021916908373ffffffffffffffffffffffffffffffffffffffff160217905550808273ffffffffffffffffffffffffffffffffffffffff16600073ffffffffffffffffffffffffffffffffffffffff167fddf252ad1be2c89b69c2b068fc378daa952ba7f163c4a11628f55a4df523b3ef60405160405180910390a4611f7e60008383600161191e565b5050565b828054611f8e90612701565b90600052602060002090601f016020900481019282611fb05760008555611ff7565b82601f10611fc957805160ff1916838001178555611ff7565b82800160010185558215611ff7579182015b82811115611ff6578251825591602001919060010190611fdb565b5b5090506120049190612008565b5090565b5b80821115612021576000816000905550600101612009565b5090565b6000604051905090565b600080fd5b600080fd5b60007fffffffff0000000000000000000000000000000000000000000000000000000082169050919050565b61206e81612039565b811461207957600080fd5b50565b60008135905061208b81612065565b92915050565b6000602082840312156120a7576120a661202f565b5b60006120b58482850161207c565b91505092915050565b60008115159050919050565b6120d3816120be565b82525050565b60006020820190506120ee60008301846120ca565b92915050565b600081519050919050565b600082825260208201905092915050565b60005b8381101561212e578082015181840152602081019050612113565b8381111561213d576000848401525b50505050565b6000601f19601f8301169050919050565b600061215f826120f4565b61216981856120ff565b9350612179818560208601612110565b61218281612143565b840191505092915050565b600060208201905081810360008301526121a78184612154565b905092915050565b6000819050919050565b6121c2816121af565b81146121cd57600080fd5b50565b6000813590506121df816121b9565b92915050565b6000602082840312156121fb576121fa61202f565b5b6000612209848285016121d0565b91505092915050565b600073ffffffffffffffffffffffffffffffffffffffff82169050919050565b600061223d82612212565b9050919050565b61224d81612232565b82525050565b60006020820190506122686000830184612244565b92915050565b61227781612232565b811461228257600080fd5b50565b6000813590506122948161226e565b92915050565b600080604083850312156122b1576122b061202f565b5b60006122bf85828601612285565b92505060206122d0858286016121d0565b9150509250929050565b6000806000606084860312156122f3576122f261202f565b5b600061230186828701612285565b935050602061231286828701612285565b9250506040612323868287016121d0565b9150509250925092565b612336816121af565b82525050565b6000602082019050612351600083018461232d565b92915050565b60006020828403121561236d5761236c61202f565b5b600061237b84828501612285565b91505092915050565b61238d816120be565b811461239857600080fd5b50565b6000813590506123aa81612384565b92915050565b600080604083850312156123c7576123c661202f565b5b60006123d585828601612285565b92505060206123e68582860161239b565b9150509250929050565b600080fd5b600080fd5b7f4e487b7100000000000000000000000000000000000000000000000000000000600052604160045260246000fd5b61243282612143565b810181811067ffffffffffffffff82111715612451576124506123fa565b5b80604052505050565b6000612464612025565b90506124708282612429565b919050565b600067ffffffffffffffff8211156124905761248f6123fa565b5b61249982612143565b9050602081019050919050565b82818337600083830152505050565b60006124c86124c384612475565b61245a565b9050828152602081018484840111156124e4576124e36123f5565b5b6124ef8482856124a6565b509392505050565b600082601f83011261250c5761250b6123f0565b5b813561251c8482602086016124b5565b91505092915050565b6000806000806080858703121561253f5761253e61202f565b5b600061254d87828801612285565b945050602061255e87828801612285565b935050604061256f878288016121d0565b925050606085013567ffffffffffffffff8111156125905761258f612034565b5b61259c878288016124f7565b91505092959194509250565b600067ffffffffffffffff8211156125c3576125c26123fa565b5b6125cc82612143565b9050602081019050919050565b60006125ec6125e7846125a8565b61245a565b905082815260208101848484011115612608576126076123f5565b5b6126138482856124a6565b509392505050565b600082601f8301126126305761262f6123f0565b5b81356126408482602086016125d9565b91505092915050565b60006020828403121561265f5761265e61202f565b5b600082013567ffffffffffffffff81111561267d5761267c612034565b5b6126898482850161261b565b91505092915050565b600080604083850312156126a9576126a861202f565b5b60006126b785828601612285565b92505060206126c885828601612285565b9150509250929050565b7f4e487b7100000000000000000000000000000000000000000000000000000000600052602260045260246000fd5b6000600282049050600182168061271957607f821691505b6020821081141561272d5761272c6126d2565b5b50919050565b7f4552433732313a20617070726f76616c20746f2063757272656e74206f776e6560008201527f7200000000000000000000000000000000000000000000000000000000000000602082015250565b600061278f6021836120ff565b915061279a82612733565b604082019050919050565b600060208201905081810360008301526127be81612782565b9050919050565b7f4552433732313a20617070726f76652063616c6c6572206973206e6f7420746f60008201527f6b656e206f776e6572206f7220617070726f76656420666f7220616c6c000000602082015250565b6000612821603d836120ff565b915061282c826127c5565b604082019050919050565b6000602082019050818103600083015261285081612814565b9050919050565b7f4552433732313a2063616c6c6572206973206e6f7420746f6b656e206f776e6560008201527f72206f7220617070726f76656400000000000000000000000000000000000000602082015250565b60006128b3602d836120ff565b91506128be82612857565b604082019050919050565b600060208201905081810360008301526128e2816128a6565b9050919050565b600081905092915050565b50565b60006129046000836128e9565b915061290f826128f4565b600082019050919050565b6000612925826128f7565b9150819050919050565b7f4552433732313a20696e76616c696420746f6b656e2049440000000000000000600082015250565b60006129656018836120ff565b91506129708261292f565b602082019050919050565b6000602082019050818103600083015261299481612958565b9050919050565b7f4552433732313a2061646472657373207a65726f206973206e6f74206120766160008201527f6c6964206f776e65720000000000000000000000000000000000000000000000602082015250565b60006129f76029836120ff565b9150612a028261299b565b604082019050919050565b60006020820190508181036000830152612a26816129ea565b9050919050565b600081905092915050565b6000612a43826120f4565b612a4d8185612a2d565b9350612a5d818560208601612110565b80840191505092915050565b6000612a758285612a38565b9150612a818284612a38565b91508190509392505050565b7f4e487b7100000000000000000000000000000000000000000000000000000000600052601160045260246000fd5b6000612ac7826121af565b9150612ad2836121af565b9250827fffffffffffffffffffffffffffffffffffffffffffffffffffffffffffffffff03821115612b0757612b06612a8d565b5b828201905092915050565b7f4f776e61626c653a206e6577206f776e657220697320746865207a65726f206160008201527f6464726573730000000000000000000000000000000000000000000000000000602082015250565b6000612b6e6026836120ff565b9150612b7982612b12565b604082019050919050565b60006020820190508181036000830152612b9d81612b61565b9050919050565b7f4552433732313a207472616e736665722066726f6d20696e636f72726563742060008201527f6f776e6572000000000000000000000000000000000000000000000000000000602082015250565b6000612c006025836120ff565b9150612c0b82612ba4565b604082019050919050565b60006020820190508181036000830152612c2f81612bf3565b9050919050565b7f4552433732313a207472616e7366657220746f20746865207a65726f2061646460008201527f7265737300000000000000000000000000000000000000000000000000000000602082015250565b6000612c926024836120ff565b9150612c9d82612c36565b604082019050919050565b60006020820190508181036000830152612cc181612c85565b9050919050565b7f4f776e61626c653a2063616c6c6572206973206e6f7420746865206f776e6572600082015250565b6000612cfe6020836120ff565b9150612d0982612cc8565b602082019050919050565b60006020820190508181036000830152612d2d81612cf1565b9050919050565b7f4552433732313a20617070726f766520746f2063616c6c657200000000000000600082015250565b6000612d6a6019836120ff565b9150612d7582612d34565b602082019050919050565b60006020820190508181036000830152612d9981612d5d565b9050919050565b7f4552433732313a207472616e7366657220746f206e6f6e20455243373231526560008201527f63656976657220696d706c656d656e7465720000000000000000000000000000602082015250565b6000612dfc6032836120ff565b9150612e0782612da0565b604082019050919050565b60006020820190508181036000830152612e2b81612def565b9050919050565b7f45524337323155524953746f726167653a2055524920736574206f66206e6f6e60008201527f6578697374656e7420746f6b656e000000000000000000000000000000000000602082015250565b6000612e8e602e836120ff565b9150612e9982612e32565b604082019050919050565b60006020820190508181036000830152612ebd81612e81565b9050919050565b6000612ecf826121af565b9150612eda836121af565b925082821015612eed57612eec612a8d565b5b828203905092915050565b600081519050919050565b600082825260208201905092915050565b6000612f1f82612ef8565b612f298185612f03565b9350612f39818560208601612110565b612f4281612143565b840191505092915050565b6000608082019050612f626000830187612244565b612f6f6020830186612244565b612f7c604083018561232d565b8181036060830152612f8e8184612f14565b905095945050505050565b600081519050612fa881612065565b92915050565b600060208284031215612fc457612fc361202f565b5b6000612fd284828501612f99565b91505092915050565b7f4e487b7100000000000000000000000000000000000000000000000000000000600052601260045260246000fd5b7f4552433732313a206d696e7420746f20746865207a65726f2061646472657373600082015250565b60006130406020836120ff565b915061304b8261300a565b602082019050919050565b6000602082019050818103600083015261306f81613033565b9050919050565b7f4552433732313a20746f6b656e20616c7265616479206d696e74656400000000600082015250565b60006130ac601c836120ff565b91506130b782613076565b602082019050919050565b600060208201905081810360008301526130db8161309f565b905091905056fea2646970667358221220b95392a17f5cc5f3c74438f83933770af6190d68cac68a4b890a9be5f15338a064736f6c63430008090033",
  "linkReferences": {},
  "deployedLinkReferences": {}
}